:020000040800F2
:1000000000500020C5230008952200089722000810
:10001000992200089B2200089D2200080000000091
:100020000000000000000000000000009F22000807
:10003000A122000800000000A3220008A522000859
:100040000D2400080D2400080D2400080D240008CC
:100050000D2400080D2400080D2400080D240008BC
:100060000D2400080D2400080D2400080D240008AC
:100070000D2400080D2400080D2400080D2400089C
:100080000D2400080D2400080D2400080D2400088C
:100090000D2400080D2400080D2400080D2400087C
:1000A0000D2400080D2400080D2400080D2400086C
:1000B000651C0008311E0008811C00080D24000882
:1000C0000D2400080D2400080D2400080D2400084C
:1000D0000D2400080D2400080D2400080D2400083C
:1000E0000D2400080D2400080D2400080000000065
:1000F0000000000000000000000000000000000000
:0C01000000000000000000005FF808F1A3
:1001100010B5054C237833B9044B13B10448AFF341
:1001200000800123237010BD440400200000000063
:100130003825000808B5034B1BB103490348AFF34A
:10014000008008BD00000000480400203825000899
:100150004FF0FF0C1CEAD0521EBF1CEAD15392EAAA
:100160000C0F93EA0C0F6FD01A4480EA010C400286
:1001700018BF5FEA41211ED04FF0006343EA5010E0
:1001800043EA5111A0FB01310CF00040B1F5000F22
:100190003EBF490041EAD3715B0040EA010062F1D1
:1001A0007F02FD2A1DD8B3F1004F40EBC25008BFBB
:1001B00020F00100704790F0000F0CF0004C08BFD9
:1001C00049024CEA502040EA51207F3AC2BFD2F1A6
:1001D000FF0340EAC250704740F400004FF00003B4
:1001E000013A5DDC12F1190FDCBF00F000407047EE
:1001F000C2F10002410021FA02F1C2F1200200FA2C
:1002000002FC5FEA310040F1000053EA4C0308BFF2
:1002100020EADC70704792F0000F00F0004C02BF43
:10022000400010F4000F013AF9D040EA0C0093F0BE
:10023000000F01F0004C02BF490011F4000F013B18
:10024000F9D041EA0C018FE70CEAD15392EA0C0F86
:1002500018BF93EA0C0F0AD030F0004C18BF31F0F1
:10026000004CD8D180EA010000F00040704790F0C7
:10027000000F17BF90F0004F084691F0000F91F06B
:10028000004F14D092EA0C0F01D142020FD193EA31
:100290000C0F03D14B0218BF084608D180EA0100B9
:1002A00000F0004040F0FE4040F40000704740F095
:1002B000FE4040F44000704781F0004102E000BF82
:1002C00083F0004330B54FEA41044FEA430594EA16
:1002D000050F08BF90EA020F1FBF54EA000C55EA51
:1002E000020C7FEA645C7FEA655C00F0E2804FEA22
:1002F0005454D4EB5555B8BF6D420CDD2C4480EA04
:10030000020281EA030382EA000083EA010180EA33
:10031000020281EA0303362D88BF30BD11F0004F81
:100320004FEA01314FF4801C4CEA113102D04042B7
:1003300061EB410113F0004F4FEA03334CEA1333F2
:1003400002D0524263EB430394EA050F00F0A7800A
:10035000A4F10104D5F1200E0DDB02FA0EFC22FA05
:1003600005F2801841F1000103FA0EF2801843FAF9
:1003700005F359410EE0A5F120050EF1200E012AEA
:1003800003FA0EFC28BF4CF0020C43FA05F3C01828
:1003900051EBE37101F0004507D54FF0000EDCF1A1
:1003A000000C7EEB00006EEB0101B1F5801F1BD34A
:1003B000B1F5001F0CD349085FEA30004FEA3C0C4E
:1003C00004F101044FEA445212F5800F80F09A8044
:1003D000BCF1004F08BF5FEA500C50F1000041EB48
:1003E000045141EA050130BD5FEA4C0C404141EB4C
:1003F0000101013C28BFB1F5801FE9D291F0000F47
:1004000004BF01460020B1FA81F308BF2033A3F1F5
:100410000B03B3F120020CDA0C3208DD02F1140CEC
:10042000C2F10C0201FA0CF021FA02F10CE002F127
:100430001402D8BFC2F1200C01FA02F120FA0CFC20
:10044000DCBF41EA0C019040E41AA2BF01EB045169
:10045000294330BD6FEA04041F3C1CDA0C340EDC67
:1004600004F11404C4F1200220FA04F001FA02F3AA
:1004700040EA030021FA04F345EA030130BDC4F168
:100480000C04C4F1200220FA02F001FA04F340EA5D
:100490000300294630BD21FA04F0294630BD94F00E
:1004A000000F83F4801306BF81F480110134013DF5
:1004B0004EE77FEA645C18BF7FEA655C29D094EA66
:1004C000050F08BF90EA020F05D054EA000C04BFE4
:1004D0001946104630BD91EA030F1EBF00210020CF
:1004E00030BD5FEA545C05D14000494128BF41F06E
:1004F000004130BD14F580043CBF01F5801130BDD2
:1005000001F0004545F0FE4141F470014FF000005C
:1005100030BD7FEA645C1ABF194610467FEA655C0D
:100520001CBF0B46024650EA013406BF52EA0335AF
:1005300091EA030F41F4002130BD00BF90F0000F9D
:1005400004BF0021704730B54FF4806404F13204D9
:100550004FF000054FF0000150E700BF90F0000F92
:1005600004BF0021704730B54FF4806404F13204B9
:1005700010F0004548BF40424FF000013EE700BF89
:1005800042004FEAE2014FEA31014FEA02701FBF19
:1005900012F07F4393F07F4F81F06051704732F04B
:1005A0007F4208BF704793F07F4F04BF41F40021A2
:1005B000704730B54FF4607401F0004521F0004100
:1005C0001CE700BF50EA010208BF704730B54FF08A
:1005D00000050AE050EA010208BF704730B511F08B
:1005E000004502D5404261EB41014FF4806404F1C3
:1005F00032045FEA915C3FF4D8AE4FF003025FEA49
:10060000DC0C18BF03325FEADC0C18BF033202EBCC
:10061000DC02C2F1200300FA03FC20FA02F001FA26
:1006200003FE40EA0E0021FA02F11444BDE600BFC9
:1006300070B54FF0FF0C4CF4E06C1CEA11541DBF78
:100640001CEA135594EA0C0F95EA0C0F00F0DEF843
:100650002C4481EA030621EA4C5123EA4C5350EA28
:10066000013518BF52EA033541F4801143F4801379
:1006700038D0A0FB02CE4FF00005E1FB02E506F00A
:100680000042E0FB03E54FF00006E1FB03569CF05F
:10069000000F18BF4EF0010EA4F1FF04B6F5007F65
:1006A00064F5407404D25FEA4E0E6D4146EB0606D7
:1006B00042EAC62141EA55514FEAC52040EA5E5060
:1006C0004FEACE2EB4F1FD0C88BFBCF5E06F1ED80A
:1006D000BEF1004F08BF5FEA500E50F1000041EB41
:1006E000045170BD06F0004646EA010140EA0200EE
:1006F00081EA0301B4EB5C04C2BFD4EB0C0541EA10
:10070000045170BD41F480114FF0000E013C00F324
:10071000AB8014F1360FDEBF002001F0004170BD48
:10072000C4F10004203C35DA0C341BDC04F1140461
:10073000C4F1200500FA05F320FA04F001FA05F2ED
:1007400040EA020001F0004221F0004110EBD370BA
:1007500021FA04F642EB06015EEA430E08BF20EAE6
:10076000D37070BDC4F10C04C4F1200500FA04F389
:1007700020FA05F001FA04F240EA020001F000411B
:1007800010EBD37041F100015EEA430E08BF20EA8E
:10079000D37070BDC4F1200500FA05F24EEA020ED6
:1007A00020FA04F301FA05F243EA020321FA04F005
:1007B00001F0004121FA04F220EA020000EBD370BC
:1007C0005EEA430E08BF20EAD37070BD94F0000FBC
:1007D0000FD101F00046400041EB010111F4801FF0
:1007E00008BF013CF7D041EA060195F0000F18BFA1
:1007F000704703F00046520043EB030313F4801FDD
:1008000008BF013DF7D043EA0603704794EA0C0F96
:100810000CEA135518BF95EA0C0F0CD050EA4106AC
:1008200018BF52EA4306D1D181EA030101F0004129
:100830004FF0000070BD50EA410606BF1046194651
:1008400052EA430619D094EA0C0F02D150EA01365D
:1008500013D195EA0C0F05D152EA03361CBF10469E
:1008600019460AD181EA030101F0004141F0FE413D
:1008700041F470014FF0000070BD41F0FE4141F4C1
:10088000780170BD70B54FF0FF0C4CF4E06C1CEAC1
:1008900011541DBF1CEA135594EA0C0F95EA0C0F76
:1008A00000F0A7F8A4EB050481EA030E52EA033531
:1008B0004FEA013100F088804FEA03334FF0805552
:1008C00045EA131343EA12634FEA022245EA11157F
:1008D00045EA10654FEA00260EF000419D4208BF30
:1008E000964244F1FD0404F5407402D25B084FEADD
:1008F0003202B61A65EB03055B084FEA32024FF489
:1009000080104FF4002CB6EB020E75EB030E22BFE5
:10091000B61A754640EA0C005B084FEA3202B6EBA5
:10092000020E75EB030E22BFB61A754640EA5C0054
:100930005B084FEA3202B6EB020E75EB030E22BFE4
:10094000B61A754640EA9C005B084FEA3202B6EBE5
:10095000020E75EB030E22BFB61A754640EADC00A4
:1009600055EA060E18D04FEA051545EA16754FEA06
:1009700006164FEAC30343EA52734FEAC2025FEA24
:100980001C1CC0D111F4801F0BD141EA00014FF0B3
:1009900000004FF0004CB6E711F4801F04BF014384
:1009A0000020B4F1FD0C88BFBCF5E06F3FF6AFAEA0
:1009B000B5EB030C04BFB6EB020C5FEA500C50F130
:1009C000000041EB045170BD0EF0004E4EEA1131B3
:1009D00014EB5C04C2BFD4EB0C0541EA045170BDBA
:1009E00041F480114FF0000E013C90E645EA060EFE
:1009F0008DE60CEA135594EA0C0F08BF95EA0C0F2C
:100A00003FF43BAF94EA0C0F0AD150EA01347FF473
:100A100034AF95EA0C0F7FF425AF104619462CE74A
:100A200095EA0C0F06D152EA03353FF4FDAE1046AD
:100A3000194622E750EA410618BF52EA43067FF4FE
:100A4000C5AE50EA41047FF40DAF52EA43057FF48E
:100A5000EBAE12E74FEA4102B2F1E04324BFB3F537
:100A6000001CDCF1FE5C0DD901F0004C4FEAC00225
:100A70004CEA5070B2F1004F40EB830008BF20F009
:100A80000100704711F0804F21D113F13872BCBFC3
:100A900001F00040704741F480114FEA5252C2F118
:100AA0001802C2F1200C10FA0CF320FA02F018BF61
:100AB00040F001004FEAC1234FEAD32303FA0CFCB4
:100AC00040EA0C0023FA02F34FEA4303CCE77FEA43
:100AD000625307D150EA01331EBF4FF0FE4040F48D
:100AE0004000704701F0004040F0FE4040F400003C
:100AF000704700BF80F0004002E000BF81F000417D
:100B000042001FBF5FEA410392EA030F7FEA226CB3
:100B10007FEA236C6AD04FEA1262D2EB1363C1BF43
:100B2000D218414048404140B8BF5B42192B88BFB2
:100B3000704710F0004F40F4000020F07F4018BFD5
:100B4000404211F0004F41F4000121F07F4118BFF5
:100B5000494292EA030F3FD0A2F1010241FA03FC9D
:100B600010EB0C00C3F1200301FA03F100F0004385
:100B700002D5494260EB4000B0F5000F13D3B0F14D
:100B8000807F06D340084FEA310102F10102FE2ABC
:100B900051D2B1F1004F40EBC25008BF20F001002C
:100BA00040EA03007047490040EB0000013A28BFCB
:100BB000B0F5000FEDD2B0FA80FCACF1080CB2EB4E
:100BC0000C0200FA0CF0AABF00EBC25052421843CC
:100BD000BCBFD0401843704792F0000F81F4000171
:100BE00006BF80F400000132013BB5E74FEA410344
:100BF0007FEA226C18BF7FEA236C21D092EA030FB0
:100C000004D092F0000F08BF0846704790EA010F29
:100C10001CBF0020704712F07F4F04D1400028BF56
:100C200040F00040704712F100723CBF00F5000038
:100C3000704700F0004343F0FE4040F4000070476E
:100C40007FEA226216BF08467FEA2363014642021A
:100C500006BF5FEA412390EA010F40F4800070472D
:100C60004FF0000304E000BF10F0004348BF4042D3
:100C70005FEA000C08BF704743F0964301464FF00F
:100C800000001CE050EA010208BF70474FF000036B
:100C90000AE000BF50EA010208BF704711F00043AC
:100CA00002D5404261EB41015FEA010C02BF84467C
:100CB0000146002043F0B64308BFA3F18053A3F5DB
:100CC0000003BCFA8CF2083AA3EBC25310DB01FA22
:100CD00002FC634400FA02FCC2F12002BCF1004FA6
:100CE00020FA02F243EB020008BF20F00100704737
:100CF00002F1200201FA02FCC2F1200250EA4C008B
:100D000021FA02F243EB020008BF20EADC707047D0
:100D10004FF0FF3C06E000BF4FF0010C02E000BFC7
:100D20004FF0010C4DF804CD4FEA40024FEA410369
:100D30007FEA226C18BF7FEA236C11D001B052EA1F
:100D4000530C18BF90EA010F58BFB2EB030088BFE5
:100D5000C81738BF6FEAE17018BF40F00100704754
:100D60007FEA226C02D15FEA402C05D17FEA236C36
:100D7000E4D15FEA412CE1D05DF8040B704700BF7D
:100D8000844608466146FFE70FB5FFF7C9FF002814
:100D900048BF10F1000F0FBD4DF808EDFFF7F4FF4D
:100DA0000CBF012000205DF808FB00BF4DF808EDE6
:100DB000FFF7EAFF34BF012000205DF808FB00BF09
:100DC0004DF808EDFFF7E0FF94BF012000205DF82B
:100DD00008FB00BF4DF808EDFFF7D2FF94BF0120DC
:100DE00000205DF808FB00BF4DF808EDFFF7C8FFD5
:100DF00034BF012000205DF808FB00BF4FEA40022D
:100E0000B2F1FE4F0FD34FF09E03B3EB12620DD938
:100E10004FEA002343F0004310F0004F23FA02F0A2
:100E200018BF404270474FF00000704712F1610F49
:100E300001D1420205D110F0004008BF6FF0004020
:100E400070474FF00000704742000ED2B2F1FE4FE3
:100E50000BD34FF09E03B3EB126209D44FEA002389
:100E600043F0004323FA02F070474FF00000704750
:100E700012F1610F01D1420202D14FF0FF307047F1
:100E80004FF00000704700BF40F0BF6040F40030FA
:100E9000014BD860704700BF00ED00E0C378FBB1A4
:100EA000154BDA68D243C2F30222C2F1040C0F23BD
:100EB00023FA02F2417801FA0CF1837813400B43D4
:100EC0001B010278DBB20D490A4482F80033037833
:100ED00003F01F005B090122824041F82320704784
:100EE000037803F01F015B0901228A402033034984
:100EF00041F82320704700BF00ED00E000E100E072
:100F000030B5CB7803F00F02964613F0100F03D0E4
:100F100091F802E04EEA020E0B7803B30468002356
:100F200001E042610133072B18D801229A40B1F841
:100F300000C032EA0C05F5D14FEA830C0F2505FA03
:100F40000CF524EA05040EFA0CFC4CEA0404CD78F6
:100F5000282DE6D0482DE5D10261E3E704600B8837
:100F6000FF2B25D94468002303E0CD78482D1CD001
:100F70000133072B1BD803F1080C012202FA0CF2F3
:100F8000B1F800C032EA0C05F2D14FEA830C0F250C
:100F900005FA0CF524EA05040EFA0CFC4CEA0404EC
:100FA000CD78282DE1D14261DFE70261E0E74460BE
:100FB00030BD0AB1016170474161704710B4294BDF
:100FC0005B6803F00C03042B2BD0082B2CD013B13F
:100FD000254B036001E0244B036022494B68C3F3B7
:100FE0000313224CE35CDAB20368D34043604A68DF
:100FF000C2F30222A25CD2B223FA02F282604A68F1
:10100000C2F3C222A25CD2B2D340C3604A68C2F328
:10101000813217498A5CD2B2B3FBF2F3036110BC90
:101020007047114B0360D8E70E4A53685268C3F308
:101030008343023312F4803F04D10E4A02FB03F3D0
:101040000360CAE7074A526812F4003F04D0094A15
:1010500002FB03F30360C0E7034A02FB03F30360F0
:10106000BBE700BF0010024000127A00040000201D
:101070000000002000093D0021B1054A9369184392
:1010800090617047024A936923EA000090617047BB
:101090000010024021B1054AD3691843D06170475E
:1010A000024AD36923EA0000D06170470010024071
:1010B00000B5B0F820E01FFA8EFE2EF0010E1FFAE8
:1010C0008EFEA0F820E0B0F818C01FFA8CFCB0F833
:1010D00020E01FFA8EFE2CF0F30C1B019BB2134391
:1010E0004CEA030C124A904217D0124B984214D08B
:1010F000B0F1804F11D0A3F5983398420DD003F58D
:101100008063984209D003F58063984205D02EF0A1
:101110000A03194341F0010104E02EF002031943D0
:1011200041F00101A0F818C001845DF804FB00BF84
:10113000002C01400034014010B5B0F820C01FFA67
:101140008CFC2CF0100C1FFA8CFCA0F820C0B0F81E
:1011500018E0B0F820C01FFA8CFC0C01A4B22EF4E9
:10116000407E4FEA0E5E4FEA1E5E1B039BB243EACF
:101170000E03120292B21A43134B984219D003F590
:101180000063984215D0B0F1804F12D0A3F5983388
:1011900098420ED003F5806398420AD003F580632D
:1011A000984206D02CF0A00C4CEA010C4CF0100C2C
:1011B00005E02CF0200C4CEA040C4CF0100C0283DF
:1011C000A0F820C010BD00BF002C014030B50C4677
:1011D000B0F820C01FFA8CFC2CF4807C1FFA8CFC29
:1011E000A0F820C0B0F81CE01FFA8EFE018C89B276
:1011F0002502ADB22EF0F30E1B019BB213434EEA53
:101200000303124A904219D002F50062904215D0B1
:10121000B0F1804F12D0A2F5983290420ED002F574
:10122000806290420AD002F58062904206D021F49A
:10123000206C4CEA040141F4807104E021F4007157
:10124000294341F480718383018430BD002C014027
:1012500010B5B0F820C01FFA8CFC2CF4805C1FFA8B
:101260008CFCA0F820C0B0F81CE0B0F820C01FFA39
:101270008CFC0C03A4B22EF4407E4FEA0E5E4FEAC3
:101280001E5E120292B242EA0E021B039BB213438D
:10129000144A90421DD002F50062904219D0B0F17C
:1012A000804F16D0A2F59832904212D002F580629B
:1012B00090420ED002F5806290420AD02CF4007C5D
:1012C0004FEA4C4C4FEA5C4C41EA0C0141F480512E
:1012D00004E02CF40051214341F4805183830184C4
:1012E00010BD00BF002C014003889BB2214A9042F0
:1012F00012D002F5006290420ED0B0F1804F0BD0B8
:10130000A2F59832904207D002F58062904203D055
:1013100002F58062904203D123F070034A881343A0
:10132000154A904208D002F58062904204D023F41E
:1013300040739BB2CA88134303808B8883850B88D4
:1013400003850C4B98420FD003F5006398420BD0F5
:1013500003F54063984207D003F58063984203D0B9
:1013600003F58063984201D10B7A038601238382BF
:10137000704700BF002C01400010004010B4038CE7
:101380009BB223F001039BB20384038C9BB2B0F8A1
:1013900004C01FFA8CFC028B92B222F073020C88FC
:1013A000224323F002030C8923434C882343154C2A
:1013B000A0420FD004F50064A0420BD004F54064B5
:1013C000A04207D004F58064A04203D004F58064F5
:1013D000A0420FD123F008034C89234323F00403D8
:1013E0008C8823432CF4407C8C894CEA040CCC89F7
:1013F00044EA0C0CA0F804C00283CA8882860384E5
:1014000010BC7047002C014010B5038C9BB223F434
:1014100080539BB20384038C9BB2B0F804E01FFAA4
:101420008EFE828B92B222F4E64C0A88120292B2AD
:101430004CEA020223F40053B1F808C04FEA0C3C16
:101440001FFA8CFC43EA0C0C4B881B039BB243EA4B
:101450000C030C4CA04203D004F50064A04209D157
:101460002EF4804EB1F80CC04FEA8C1C1FFA8CFC95
:101470004EEA0C0EA0F804E08283CA88A0F840204F
:10148000038410BD002C01404FF6FF7383800023BE
:101490000380C3804380037270470023038043802E
:1014A00001228280C3800381704729B103889BB2E7
:1014B00043F001030380704703889BB223F00103CC
:1014C0009BB20380704749B1B0F844306FEA4343A0
:1014D0006FEA53439BB2A0F844307047B0F84430F1
:1014E000C3F30E03A0F84430704722B183899BB246
:1014F0001943818170478389C94389B21940818129
:10150000704710B50489A4B2B0F818C01FFA8CFC5B
:10151000B0F820E01FFA8EFE24F007040C432CF4F0
:10152000407C2CF0030C4CF4807C4CF0010C2EF031
:10153000220E1B019BB213434EEA030E0481A0F856
:1015400018C0A0F820E010BD29B103889BB243F079
:1015500080030380704703889BB223F080039BB213
:1015600003807047038B9BB223F008030B43038374
:101570007047838B9BB223F40063090289B20B434B
:101580008383704701238B409BB2B0F820C0DB43BC
:101590009BB203EA0C030384038C9BB28A4092B291
:1015A0001343038470478184704781867047A0F895
:1015B00040107047038B9BB223F00C039BB2038354
:1015C000038B9BB20B4303837047038B9BB223F4C3
:1015D00040639BB20383038B9BB2090289B20B4326
:1015E00003837047838B9BB223F00C039BB28383EE
:1015F000838B9BB20B4383837047838B9BB223F413
:1016000040639BB28383838B9BB2090289B20B43F5
:101610008383704738B505460C460B886BB1042BA5
:1016200015D0082B1DD00B898A884988FFF710FE3A
:10163000E1882846FFF7E1FF38BD0B898A88498891
:10164000FFF736FDE1882846FFF7B4FFF4E70B8982
:101650008A884988FFF770FDE1882846FFF7B5FFC3
:10166000EAE70B898A884988FFF7B0FDE1882846B8
:10167000FFF7B8FFE0E7808C80B27047C94389B2BA
:1016800001827047028A83890B40114202D01BB944
:10169000002070470020704701207047C94389B27D
:1016A0000182704730B587B004460D46038A9BB26D
:1016B000CA8823F440531343038283899BB28988E9
:1016C00028896A8901430A4323F4B05323F00C03A9
:1016D0001343A381A38A9BB2AA8923F440731343C3
:1016E000A38201A8FFF76AFC1D4B9C4224D0039BF8
:1016F000A28912F4004F21D103EB830303EB830390
:101700002A689200B3FBF2F3164AA2FB03125209B5
:101710001101642002FB1033A28912F4004F16D18C
:101720001B0132330F4AA2FB0323C3F343130B43C2
:101730009BB2238107B030BD049BD9E703EB830341
:1017400003EB83032A685200B3FBF2F3DCE7DB0010
:101750003233044AA2FB0323C3F342130B43E7E7EC
:10176000003801401F85EB5129B183899BB243F4B6
:1017700000538381704783899BB223F400539BB24B
:1017800083817047C1F3421C01F01F01012303FA5A
:1017900001F19C4508D0BCF1020F07D014303AB1DA
:1017A00003681943016070470C30F8E71030F6E722
:1017B000036823EA010101607047000070B582B040
:1017C00001210420FFF758FC14238DF80730032370
:1017D0008DF806301026ADF804600C4C01A92046A7
:1017E000FFF78EFB2025ADF8045001A92046FFF736
:1017F00087FB012231462046FFF7DBFB0122294609
:101800002046FFF7D6FB02B070BD00BF00080140C4
:1018100010B50B4C012220212046FFF7CAFB012204
:1018200010212046FFF7C5FB002220212046FFF7AC
:10183000C0FB002210212046FFF7BBFB10BD00BFFC
:101840000008014010B5084C002220212046FFF777
:10185000B0FB012210212046FFF7ABFB0122202123
:101860002046FFF7A6FB10BD0008014070B50646F4
:10187000002413E0802222410F4D324020212846CF
:10188000FFF797FB012210212846FFF792FB002269
:1018900010212846FFF78DFB0134E4B2072CE9D96B
:1018A000054C012210212046FFF783FB0022102166
:1018B0002046FFF77EFB70BD0008014010B50446CE
:1018C000FFF7A6FF7820FFF7D1FF0020FFF7CEFF3C
:1018D0002046FFF7CBFFFFF7B5FF10BD10B504465C
:1018E000FFF796FF7820FFF7C1FF4020FFF7BEFF0C
:1018F0002046FFF7BBFFFFF7A5FF10BD10B50C4654
:1019000040F0B000FFF7DAFF200940F01000FFF7C9
:10191000D5FF04F00F00FFF7D1FF10BD38B500254B
:1019200009E00020FFF7DAFF0134E4B214F0800F81
:10193000F7D00135EDB2072D05D800212846FFF775
:10194000DDFF0024F2E738BDF8B51546461E7600E7
:10195000F6B24F1EFF00FFB239463046FFF7CEFF0A
:10196000002409E0A5F120030F4A02EB0313185DE0
:10197000FFF7B4FF0134E4B2072CF3D9701C3946E9
:10198000C0B2FFF7BBFF00240BE0A5F1200304F178
:101990000802054901EB0313985CFFF79FFF013430
:1019A000E4B2072CF1D9F8BD50250008F8B5074678
:1019B0000E461546002406E0A119C9B23846FFF7C5
:1019C000C3FF0134E4B22A5D002AF5D1F8BD024616
:1019D000012002E002FB00F019464B1E0029F9D15C
:1019E000704700002DE9F8438146884617461E4699
:1019F000002419E004EB0805EDB2311B01390A207F
:101A0000FFF7E5FFB7FBF0F0094AA2FB0032D2086E
:101A100002EB8202A0EB42023032D2B229464846A3
:101A2000FFF792FF0134E4B2B442E3D3BDE8F88398
:101A3000CDCCCCCC08B5002204E00133B3F57A7FDD
:101A4000FBD30132B2F57A7F01D20023F6E7FFF72C
:101A5000B5FEAE20FFF732FFD520FFF72FFF802025
:101A6000FFF72CFFA820FFF729FF3F20FFF726FFF5
:101A7000D320FFF723FF0020FFF720FF4020FFF7D0
:101A80001DFFA120FFF71AFFC820FFF717FFDA207C
:101A9000FFF714FF1220FFF711FF8120FFF70EFF61
:101AA000CF20FFF70BFFD920FFF708FFF120FFF74A
:101AB00005FFDB20FFF702FF3020FFF7FFFEA42029
:101AC000FFF7FCFEA620FFF7F9FE8D20FFF7F6FEDC
:101AD0001420FFF7F3FEAF20FFF7F0FEFFF71EFF25
:101AE00008BD000030B589B001210420FFF7C4FA19
:101AF00001210846FFF7CEFA0325ADF81C50042358
:101B00008DF81F3007A91F48FFF7FAF904A8FFF75F
:101B1000BBFC0024ADF81640ADF812404FF6FF7341
:101B2000ADF81430ADF8104004A94FF08040FFF735
:101B3000DBFB2346224629464FF08040FFF7E1FCBD
:101B400001A8FFF7AAFC0A23ADF80C3001A94FF059
:101B50008040FFF75FFD01214FF08040FFF78EFDD1
:101B6000012211464FF08040FFF7BFFC21464FF0A5
:101B70008040FFF718FD01214FF08040FFF795FCF2
:101B800009B030BD0008014030B589B001210820FE
:101B9000FFF772FA01210420FFF77CFAC023ADF8A9
:101BA0001C3004238DF81F3007A91C48FFF7A8F943
:101BB00004A8FFF769FC0025ADF81650ADF81250E7
:101BC0004FF6FF73ADF81430ADF81050144C04A963
:101BD0002046FFF789FB2B462A4603212046FFF7C4
:101BE00090FC01A8FFF759FC0A23ADF80C3001A9BD
:101BF0002046FFF70FFD01212046FFF73FFD0122A0
:101C000011462046FFF771FC29462046FFF7CBFC22
:101C100001212046FFF749FC09B030BD000C01400E
:101C20000008004038B5022804D004280DD0002454
:101C3000204638BD4FF08040FFF71DFD04B2002163
:101C40004FF08040FFF7AFFCF2E7054D2846FFF765
:101C500012FD04B200212846FFF7A5FCE8E700BF0B
:101C60000008004008B501214FF08040FFF70AFD51
:101C700000B908BD01214FF08040FFF70FFDF8E7E4
:101C800008B501210448FFF7FDFC00B908BD01219A
:101C90000148FFF703FDF9E70008004000B583B0F5
:101CA00001210820FFF7E8F94FF47043ADF8043044
:101CB00010238DF8073003238DF8063001A903485F
:101CC000FFF71EF903B05DF804FB00BF000C0140F4
:101CD00038B50028B8BF404281EAE173A3EBE17355
:101CE00041F288329042A8BF104693420ADC054672
:101CF000064C81B22046FFF758FCA9B22046FFF7F8
:101D000056FC38BD41F28835F2E700BF002C014097
:101D100038B50124064B1C70064D2246002128468A
:101D2000FFF730FC22460C212846FFF72BFC38BD7C
:101D300060040020002C014010B50B4B1868FEF722
:101D400093FF0A4BD86100F00DF904460849FFF7EC
:101D50004BF830B907492046FFF728F810B1054C79
:101D600000E0034C204610BD6804002088040020D9
:101D700000002043000020C308B5084BB3F9083029
:101D8000074880FB03201844DB17C3EB6050FEF7C5
:101D90006BFF044B186400F013F908BD68040020C1
:101DA000C1350E818804002010B5FFF7C5FF044C33
:101DB000E063FFF7E1FFFFF721F8606410BD00BFAB
:101DC000880400200000000038B50546144A0023AE
:101DD00093700121517013715371124C23816381EF
:101DE000236063601170FEF73BFF60612846FEF7D9
:101DF000B5FB09A3D3E90023FEF744FD00220A4BFB
:101E0000FEF716FCFEF726FE084B9861FFF780FFF1
:101E100038BD00BFAFF30080295C8FC2F568344045
:101E200060040020680400200060984088040020BE
:101E300038B501213248FFF725FC00B938BD012132
:101E40002F48FFF72BFC0220FFF7ECFE2D4C404201
:101E500020810420FFF7E6FE03B26381B4F9080095
:101E6000226810442060626813446360FEF776FBCA
:101E700021A3D3E90023FEF705FDFEF7EBFD0546A0
:101E8000E060646920492046FEF73AFE0146284694
:101E9000FEF796FF40B11C492046FEF72FFE014693
:101EA0002846FEF797FF10B9184B00229A70174B7F
:101EB0001B78012BC2D1FFF777FF154BB3F8440015
:101EC000104C208360830146FFF702FFE068FEF7B5
:101ED000BBFF0246052301210220FFF783FD0523F6
:101EE000228B01210320FFF77DFD052322680121BC
:101EF0000420FFF777FDA1E766666666E617DF4018
:101F000000040040680400200000C8416004002074
:101F10008804002008B54FF4A060FEF7B5FF08BDA7
:101F20000C4B00229A61DA610B4919605A609A6081
:101F30005A61DA601A6100211962DA631A6407488B
:101F4000586207489862DA629A631A635A6359645E
:101F5000704700BF880400208FC2753E0000A0407B
:101F60009A991940F8B50146144CA069FEF7C6FDD0
:101F70000546E0606169FEF7C3FD064660612168C1
:101F80002846FEF7E5F8074661683046FEF7E0F8B8
:101F900001463846FEF7B4FD0646A7682169284683
:101FA000FEF7ACFD01463846FEF7D2F80146304652
:101FB000FEF7A6FDE0612561F8BD00BF88040020A2
:101FC000F8B50146254DE86BFEF798FD04462863F9
:101FD0004FF07C51FEF7EAFE38B14FF03F4120460A
:101FE000FEF702FF08B100222A631C4D2E6BA96B7D
:101FF0003046FEF785FD0446A8631949FEF7F4FE56
:1020000008B3174CAC63154DAC63696A3046FEF7F4
:102010009FF807462146A86AFEF79AF80146384617
:10202000FEF76EFD0446EF6A696B3046FEF766FD0B
:1020300001463846FEF78CF801462046FEF760FD63
:1020400028646E63F8BD07492046FEF7AFFE0028FE
:10205000D9D0044C014B9C63D5E700BF8804002015
:1020600000401C4600401CC60B4B1B680B4AA2FBE1
:1020700003239B09013B4FF0E0225361084BF02101
:1020800083F823100023936107231361136963F01E
:1020900001031361704700BF14000020D34D62108C
:1020A00000ED00E070B588B004460D46012140F611
:1020B0000500FEF7E1FF4FF41063ADF81C30182364
:1020C0008DF81F3003238DF81E3007A91C48FEF73A
:1020D00017FF0026ADF81660ADF81260ADF8145089
:1020E000ADF81040174C04A92046FFF7FDF8602317
:1020F000ADF80030ADF808600125ADF80450ADF83A
:10210000066069462046FFF739F969462046FFF721
:102110007BF929462046FFF7D6F908212046FFF72C
:1021200021FA08212046FFF724FA29462046FFF726
:102130000BFA29462046FFF7B8F908B070BD00BF7A
:1021400000080140002C014030B585B0012102207B
:10215000FEF7A0FF1D238DF80C3001248DF80F40F1
:1021600000258DF80D508DF80E5003A8FEF796FE51
:102170004723ADF8003042F20F73ADF80430ADF8EC
:102180000250084D69462846FFF7AEF82246214620
:102190002846FFF7AAF921462846FFF786F905B039
:1021A00030BD00BF0004004030B587B004460121B7
:1021B00044F20400FEF760FF4FF40073ADF81430F2
:1021C00018238DF8173003238DF816301D4D05A9FF
:1021D0002846FEF795FE4FF48063ADF814300423D3
:1021E0008DF8173005A92846FEF78AFE01940024D1
:1021F000ADF80840ADF80A40ADF80C40ADF810401D
:102200000C23ADF80E3005F5405501A92846FFF71F
:1022100049FA25238DF800308DF8014001248DF80E
:1022200002408DF803406846FEF738FE224640F231
:1022300025512846FFF7A6FA21462846FFF794FACB
:1022400007B030BD0008014008B5FFF7F3FBFFF70A
:102250000BFFFFF75FFE4FF4E130FFF7A5FFFFF73D
:1022600073FF41F61F410020FFF71CFFFFF73AFC08
:10227000FFF78AFCFFF712FD054A02210120FFF754
:1022800095FBFFF74DFE5420FFF79EFDFEE700BFD4
:10229000402B00087047FEE7FEE7FEE7FEE77047C9
:1022A000704770477047000082B00023019300938D
:1022B0002C4A136843F4803313602A4B1B6803F4E1
:1022C00000330093019B01330193009B1BB9019BD9
:1022D000B3F5A06FF1D1234B1B6813F4003F06D078
:1022E00001230093009B012B04D002B07047002310
:1022F0000093F7E71C4B1A6842F010021A601A6844
:1023000022F003021A601A6842F002021A60A3F572
:1023100080535A685A605A685A605A6842F4806218
:102320005A605A6822F47C125A605A6842F4E812E1
:102330005A601A6842F080721A600A4B1B6813F0E8
:10234000007FFAD0074B5A6822F003025A605A689D
:1023500042F002025A60034B5B6803F00C03082B47
:10236000F9D1C2E7001002400020024008B5FFF793
:102370009BFF08BD08B5104B1A6842F001021A60B5
:1023800059680E4A0A405A601A6822F0847222F490
:1023900080321A601A6822F480221A605A6822F485
:1023A000FE025A604FF41F029A60FFF7DFFF044BF2
:1023B0004FF000629A6008BD001002400000FFF874
:1023C00000ED00E0FFF7D6FF0B480C490C4A002354
:1023D00002E0D458C4500433C4188C42F9D3094ADB
:1023E000094C002301E013600432A242FBD300F049
:1023F0000FF8FFF729FF7047000000204404002079
:10240000582B000844040020D4040020FEE70000FC
:1024100070B50D4E0D4D761BB61006D0002455F844
:10242000043B01349847A642F9D1094E094D00F00A
:1024300083F8761BB61006D0002455F8043B01340F
:102440009847A642F9D170BD4C2B00084C2B0008D0
:10245000542B00084C2B0008024B13B1024800F02B
:1024600005B87047000000007924000800230146E9
:102470001A46184600F01AB838B5084B084D5B1BD1
:102480009C1007D0043B1D44013C55F80439984783
:10249000002CF9D1BDE8384000F054B8582B0008A2
:1024A000542B0008704700BF704700BF2DE9F0476C
:1024B000DFF87CA00646DAF8000098460F46914601
:1024C000FFF7F0FF1B4B1B68D3F8484124B3656846
:1024D0001F2D26DC5EB96B1C0235DAF80000636044
:1024E00044F82570FFF7E0FF0020BDE8F0870123E6
:1024F00004EB8501C1F88890D4F88821AB401A43D9
:10250000022EC4F88821C1F80881E4D1D4F88C21C6
:102510001343C4F88C31DEE703F5A674C3F84841D1
:10252000D5E7DAF80000FFF7BFFF4FF0FF30DCE738
:1025300040040020482B0008F8B500BFF8BC08BCD8
:102540009E467047F8B500BFF8BC08BC9E46704771
:10255000000000000000000000000000000000007B
:10256000000000F800000000000000333000000010
:1025700000100C06100C0600000000000000000017
:1025800040C07840C0784000043F04043F04040089
:10259000007088FC08300000001820FF211E000099
:1025A000F008F000E018000000211C031E211E00AE
:1025B00000F00888700000001E2123241927211034
:1025C00010160E00000000000000000000000000D7
:1025D000000000E01804020000000007182040007E
:1025E00000020418E000000000402018070000006E
:1025F000404080F0804040000202010F01020200D2
:10260000000000F0000000000101011F01010100B5
:10261000000000000000000080B07000000000001A
:1026200000000000000000000001010101010101A3
:10263000000000000000000000303000000000003A
:10264000000000008060180400601806010000000F
:1026500000E010080810E000000F102020100F000C
:10266000001010F8000000000020203F2020000093
:1026700000700808088870000030282422213000EB
:1026800000300888884830000018202020110E00F3
:102690000000C02010F8000000070424243F24009C
:1026A00000F80888880808000019212020110E0071
:1026B00000E0108888180000000F112020110E0083
:1026C00000380808C83808000000003F000000007B
:1026D0000070880808887000001C222121221C003C
:1026E00000E010080810E0000000312222110F0065
:1026F000000000C0C00000000000003030000000FA
:102700000000008000000000000080600000000069
:102710000000804020100800000102040810200082
:1027200040404040404040000404040404040400CD
:102730000008102040800000002010080402010062
:10274000007048080808F000000000303601000062
:10275000C030C828E810E0000718272423140B0015
:102760000000C038E0000000203C2302022738208F
:1027700008F8888888700000203F202020110E0073
:10278000C03008080808380007182020201008006A
:1027900008F808080810E000203F202020100F0053
:1027A00008F88888E8081000203F2020232018001F
:1027B00008F88888E8081000203F20000300000087
:1027C000C03008080838000007182020221E020028
:1027D00008F808000008F808203F210101213F20E7
:1027E000000808F8080800000020203F2020000012
:1027F00000000808F8080800C08080807F00000002
:1028000008F888C028180800203F2001263820003A
:1028100008F8080000000000203F202020203000A1
:1028200008F8F800F8F80800203F003F003F2000BB
:1028300008F830C00008F808203F200007183F00C3
:10284000E01008080810E0000F10202020100F00F2
:1028500008F808080808F000203F210101010000E5
:10286000E01008080810E0000F18242438504F002A
:1028700008F8888888887000203F2000030C3020EA
:1028800000708808080838000038202121221C0028
:10289000180808F8080818000000203F2000000071
:1028A00008F808000008F808001F202020201F005A
:1028B0000878880000C83808000007380E010000BA
:1028C000F80800F80008F800033C0700073C030084
:1028D000081868808068180820302C03032C3020EA
:1028E0000838C800C83808000000203F2000000059
:1028F00010080808C83808002038262120201800B1
:10290000000000FE020202000000007F4040400084
:10291000000C30C000000000000000010638C000BC
:1029200000020202FE000000004040407F00000064
:102930000000040202020400000000000000000089
:102940000000000000000000808080808080808087
:10295000000202040000000000000000000000006F
:1029600000008080808000000019242222223F2065
:1029700008F8008080000000003F112020110E00A8
:102980000000008080800000000E11202020110037
:10299000000000808088F800000E112020103F20E9
:1029A0000000808080800000001F2222222213006D
:1029B000008080F0888888180020203F20200000B8
:1029C0000000808080808000006B9494949360006D
:1029D00008F8008080800000203F210000203F2078
:1029E00000809898000000000020203F2020000078
:1029F000000000809898000000C08080807F000068
:102A000008F8000080808000203F24022D30200044
:102A1000000808F8000000000020203F20200000EF
:102A20008080808080808000203F20003F20003F09
:102A30008080008080800000203F210000203F2017
:102A40000000808080800000001F202020201F00C8
:102A5000808000808000000080FFA12020110E00F7
:102A60000000008080808000000E112020A0FF80E8
:102A7000808080008080800020203F212000010095
:102A800000008080808080000033242424241900EA
:102A9000008080E0808000000000001F20200000F7
:102AA0008080000000808000001F202020103F2038
:102AB000808080000080808000010E3008060100C8
:102AC00080800080008080800F300C030C300F006D
:102AD00000808000808080000020312E0E31200098
:102AE000808080000080808080818E7018060100C8
:102AF00000808080808080000021302C22213000E6
:102B000000000000807C020200000000003F404006
:102B100000000000FF00000000000000FF000000B7
:102B20000002027C800000000040403F00000000E6
:102B30000006010102020404000000000000000081
:0C2B4000736970656564000018000020D7
:082B4C005924000835010008BE
:042B54001101000863
:102B58000204060800000000010203040102030445
:102B68000607080900A24A04000000000403002028
:102B78006C030020D40300200000000000000000C7
:102B8800000000000000000000000000000000003D
:102B9800000000000000000000000000000000002D
:102BA800000000000000000000000000000000001D
:102BB800000000000000000000000000000000000D
:102BC80000000000000000000000000000000000FD
:102BD80000000000000000000000000000000000ED
:102BE80000000000000000000000000000000000DD
:102BF80000000000000000000000000000000000CD
:102C080000000000000000000000000000000000BC
:102C180001000000000000000E33CDAB34126DE659
:102C2800ECDE05000B0000000000000000000000C2
:102C3800000000000000000000000000000000008C
:102C4800000000000000000000000000000000007C
:102C5800000000000000000000000000000000006C
:102C6800000000000000000000000000000000005C
:042F9800D004002041
:04000005080023C507
:00000001FF
