:020000040800F2
:1000000000500020D92B0008F9290008FB2900081E
:10001000FD290008FF290008012A0008000000004F
:10002000000000000000000000000000032A00089B
:10003000052A000800000000072A0008092A000815
:10004000212C0008212C0008212C0008212C00085C
:10005000212C0008212C0008212C0008212C00084C
:10006000212C0008212C0008212C0008212C00083C
:10007000212C0008212C0008212C0008212C00082C
:10008000212C0008212C0008212C0008212C00081C
:10009000212C0008212C0008212C0008212C00080C
:1000A000212C0008212C0008212C0008212C0008FC
:1000B000692200089523000885220008212C0008E9
:1000C000212C0008212C0008212C0008212C0008DC
:1000D000212C00089D270008212C0008212C000855
:1000E000212C0008212C0008212C00080000000011
:1000F0000000000000000000000000000000000000
:0C01000000000000000000005FF808F1A3
:1001100010B5054C237833B9044B13B10448AFF341
:1001200000800123237010BDC809002000000000DA
:10013000308C000808B5034B1BB103490348AFF3EB
:10014000008008BD00000000CC090020308C0008B1
:1001500081F0004102E000BF83F0004330B54FEA78
:1001600041044FEA430594EA050F08BF90EA020FE5
:100170001FBF54EA000C55EA020C7FEA645C7FEA78
:10018000655C00F0E2804FEA5454D4EB5555B8BF9B
:100190006D420CDD2C4480EA020281EA030382EA0C
:1001A000000083EA010180EA020281EA0303362D9E
:1001B00088BF30BD11F0004F4FEA01314FF4801C71
:1001C0004CEA113102D0404261EB410113F0004F83
:1001D0004FEA03334CEA133302D0524263EB43033A
:1001E00094EA050F00F0A780A4F10104D5F1200ED8
:1001F0000DDB02FA0EFC22FA05F2801841F1000133
:1002000003FA0EF2801843FA05F359410EE0A5F106
:1002100020050EF1200E012A03FA0EFC28BF4CF037
:10022000020C43FA05F3C01851EBE37101F00045ED
:1002300007D54FF0000EDCF1000C7EEB00006EEBFA
:100240000101B1F5801F1BD3B1F5001F0CD3490884
:100250005FEA30004FEA3C0C04F101044FEA4452DB
:1002600012F5800F80F09A80BCF1004F08BF5FEA62
:10027000500C50F1000041EB045141EA050130BD42
:100280005FEA4C0C404141EB0101013C28BFB1F554
:10029000801FE9D291F0000F04BF01460020B1FA9F
:1002A00081F308BF2033A3F10B03B3F120020CDA72
:1002B0000C3208DD02F1140CC2F10C0201FA0CF050
:1002C00021FA02F10CE002F11402D8BFC2F1200CB5
:1002D00001FA02F120FA0CFCDCBF41EA0C0190406B
:1002E000E41AA2BF01EB0451294330BD6FEA0404B4
:1002F0001F3C1CDA0C340EDC04F11404C4F120029F
:1003000020FA04F001FA02F340EA030021FA04F3B0
:1003100045EA030130BDC4F10C04C4F1200220FA07
:1003200002F001FA04F340EA0300294630BD21FA45
:1003300004F0294630BD94F0000F83F4801306BF0B
:1003400081F480110134013D4EE77FEA645C18BFFF
:100350007FEA655C29D094EA050F08BF90EA020F96
:1003600005D054EA000C04BF1946104630BD91EA8E
:10037000030F1EBF0021002030BD5FEA545C05D191
:100380004000494128BF41F0004130BD14F58004D0
:100390003CBF01F5801130BD01F0004545F0FE4144
:1003A00041F470014FF0000030BD7FEA645C1ABF79
:1003B000194610467FEA655C1CBF0B46024650EAB0
:1003C000013406BF52EA033591EA030F41F40021DC
:1003D00030BD00BF90F0000F04BF0021704730B562
:1003E0004FF4806404F132044FF000054FF0000137
:1003F00050E700BF90F0000F04BF0021704730B5F8
:100400004FF4806404F1320410F0004548BF4042CC
:100410004FF000013EE700BF42004FEAE2014FEA21
:1004200031014FEA02701FBF12F07F4393F07F4FFC
:1004300081F06051704732F07F4208BF704793F0FF
:100440007F4F04BF41F40021704730B54FF4607412
:1004500001F0004521F000411CE700BF50EA010215
:1004600008BF704730B54FF000050AE050EA0102BE
:1004700008BF704730B511F0004502D5404261EB2E
:1004800041014FF4806404F132045FEA915C3FF46F
:10049000D8AE4FF003025FEADC0C18BF03325FEA0C
:1004A000DC0C18BF033202EBDC02C2F1200300FABD
:1004B00003FC20FA02F001FA03FE40EA0E0021FAE2
:1004C00002F11444BDE600BF70B54FF0FF0C4CF4D0
:1004D000E06C1CEA11541DBF1CEA135594EA0C0F82
:1004E00095EA0C0F00F0DEF82C4481EA030621EABD
:1004F0004C5123EA4C5350EA013518BF52EA0335F8
:1005000041F4801143F4801338D0A0FB02CE4FF0A9
:100510000005E1FB02E506F00042E0FB03E54FF0D9
:100520000006E1FB03569CF0000F18BF4EF0010ED1
:10053000A4F1FF04B6F5007F64F5407404D25FEACD
:100540004E0E6D4146EB060642EAC62141EA555180
:100550004FEAC52040EA5E504FEACE2EB4F1FD0CC2
:1005600088BFBCF5E06F1ED8BEF1004F08BF5FEA40
:10057000500E50F1000041EB045170BD06F00046F2
:1005800046EA010140EA020081EA0301B4EB5C049F
:10059000C2BFD4EB0C0541EA045170BD41F4801197
:1005A0004FF0000E013C00F3AB8014F1360FDEBFBC
:1005B000002001F0004170BDC4F10004203C35DA98
:1005C0000C341BDC04F11404C4F1200500FA05F31B
:1005D00020FA04F001FA05F240EA020001F00042BC
:1005E00021F0004110EBD37021FA04F642EB060132
:1005F0005EEA430E08BF20EAD37070BDC4F10C045C
:10060000C4F1200500FA04F320FA05F001FA04F21F
:1006100040EA020001F0004110EBD37041F100010B
:100620005EEA430E08BF20EAD37070BDC4F1200516
:1006300000FA05F24EEA020E20FA04F301FA05F27E
:1006400043EA020321FA04F001F0004121FA04F226
:1006500020EA020000EBD3705EEA430E08BF20EAF6
:10066000D37070BD94F0000F0FD101F00046400030
:1006700041EB010111F4801F08BF013CF7D041EAB2
:10068000060195F0000F18BF704703F000465200B6
:1006900043EB030313F4801F08BF013DF7D043EA87
:1006A0000603704794EA0C0F0CEA135518BF95EA3D
:1006B0000C0F0CD050EA410618BF52EA4306D1D1C4
:1006C00081EA030101F000414FF0000070BD50EAE3
:1006D000410606BF1046194652EA430619D094EA6D
:1006E0000C0F02D150EA013613D195EA0C0F05D157
:1006F00052EA03361CBF104619460AD181EA0301AB
:1007000001F0004141F0FE4141F470014FF0000062
:1007100070BD41F0FE4141F4780170BD70B54FF0FD
:10072000FF0C4CF4E06C1CEA11541DBF1CEA13557D
:1007300094EA0C0F95EA0C0F00F0A7F8A4EB05045F
:1007400081EA030E52EA03354FEA013100F0888056
:100750004FEA03334FF0805545EA131343EA12631F
:100760004FEA022245EA111545EA10654FEA0026D4
:100770000EF000419D4208BF964244F1FD0404F58D
:10078000407402D25B084FEA3202B61A65EB0305E9
:100790005B084FEA32024FF480104FF4002CB6EBA6
:1007A000020E75EB030E22BFB61A754640EA0C0026
:1007B0005B084FEA3202B6EB020E75EB030E22BF66
:1007C000B61A754640EA5C005B084FEA3202B6EBA7
:1007D000020E75EB030E22BFB61A754640EA9C0066
:1007E0005B084FEA3202B6EB020E75EB030E22BF36
:1007F000B61A754640EADC0055EA060E18D04FEAF4
:10080000051545EA16754FEA06164FEAC30343EA93
:1008100052734FEAC2025FEA1C1CC0D111F4801F60
:100820000BD141EA00014FF000004FF0004CB6E759
:1008300011F4801F04BF01430020B4F1FD0C88BFF8
:10084000BCF5E06F3FF6AFAEB5EB030C04BFB6EB03
:10085000020C5FEA500C50F1000041EB045170BDF6
:100860000EF0004E4EEA113114EB5C04C2BFD4EB23
:100870000C0541EA045170BD41F480114FF0000EA7
:10088000013C90E645EA060E8DE60CEA135594EA23
:100890000C0F08BF95EA0C0F3FF43BAF94EA0C0F26
:1008A0000AD150EA01347FF434AF95EA0C0F7FF49B
:1008B00025AF104619462CE795EA0C0F06D152EAEF
:1008C00003353FF4FDAE1046194622E750EA4106D3
:1008D00018BF52EA43067FF4C5AE50EA41047FF4E4
:1008E0000DAF52EA43057FF4EBAE12E780F0004013
:1008F00002E000BF81F0004142001FBF5FEA4103F8
:1009000092EA030F7FEA226C7FEA236C6AD04FEAF7
:100910001262D2EB1363C1BFD2184140484041403C
:10092000B8BF5B42192B88BF704710F0004F40F4EE
:10093000000020F07F4018BF404211F0004F41F40A
:10094000000121F07F4118BF494292EA030F3FD0D6
:10095000A2F1010241FA03FC10EB0C00C3F12003E9
:1009600001FA03F100F0004302D5494260EB400078
:10097000B0F5000F13D3B0F1807F06D340084FEAE3
:10098000310102F10102FE2A51D2B1F1004F40EBD8
:10099000C25008BF20F0010040EA03007047490040
:1009A00040EB0000013A28BFB0F5000FEDD2B0FADD
:1009B00080FCACF1080CB2EB0C0200FA0CF0AABF00
:1009C00000EBC25052421843BCBFD040184370479E
:1009D00092F0000F81F4000106BF80F400000132A4
:1009E000013BB5E74FEA41037FEA226C18BF7FEA7B
:1009F000236C21D092EA030F04D092F0000F08BFBD
:100A00000846704790EA010F1CBF0020704712F0A3
:100A10007F4F04D1400028BF40F00040704712F1E2
:100A200000723CBF00F50000704700F0004343F047
:100A3000FE4040F4000070477FEA226216BF08467D
:100A40007FEA23630146420206BF5FEA412390EA40
:100A5000010F40F4800070474FF0000304E000BF36
:100A600010F0004348BF40425FEA000C08BF7047E7
:100A700043F0964301464FF000001CE050EA0102AB
:100A800008BF70474FF000030AE000BF50EA0102C0
:100A900008BF704711F0004302D5404261EB4101AD
:100AA0005FEA010C02BF84460146002043F0B643D2
:100AB00008BFA3F18053A3F50003BCFA8CF2083AF7
:100AC000A3EBC25310DB01FA02FC634400FA02FC00
:100AD000C2F12002BCF1004F20FA02F243EB020007
:100AE00008BF20F00100704702F1200201FA02FC69
:100AF000C2F1200250EA4C0021FA02F243EB02005C
:100B000008BF20EADC7070474FF0FF0C1CEAD0529F
:100B10001EBF1CEAD15392EA0C0F93EA0C0F6FD060
:100B20001A4480EA010C400218BF5FEA41211ED03E
:100B30004FF0006343EA501043EA5111A0FB01312A
:100B40000CF00040B1F5000F3EBF490041EAD371FF
:100B50005B0040EA010062F17F02FD2A1DD8B3F17B
:100B6000004F40EBC25008BF20F00100704790F0EA
:100B7000000F0CF0004C08BF49024CEA502040EA3C
:100B800051207F3AC2BFD2F1FF0340EAC250704702
:100B900040F400004FF00003013A5DDC12F1190F40
:100BA000DCBF00F000407047C2F10002410021FAB2
:100BB00002F1C2F1200200FA02FC5FEA310040F1CA
:100BC000000053EA4C0308BF20EADC70704792F043
:100BD000000F00F0004C02BF400010F4000F013A7B
:100BE000F9D040EA0C0093F0000F01F0004C02BF76
:100BF000490011F4000F013BF9D041EA0C018FE7E5
:100C00000CEAD15392EA0C0F18BF93EA0C0F0AD0EA
:100C100030F0004C18BF31F0004CD8D180EA010010
:100C200000F00040704790F0000F17BF90F0004FA9
:100C3000084691F0000F91F0004F14D092EA0C0F8B
:100C400001D142020FD193EA0C0F03D14B0218BF1E
:100C5000084608D180EA010000F0004040F0FE4064
:100C600040F40000704740F0FE4040F44000704700
:100C70004FF0FF0C1CEAD0521EBF1CEAD15392EA7F
:100C80000C0F93EA0C0F69D0A2EB030280EA010C6F
:100C900049024FEA402037D04FF0805343EA111108
:100CA00043EA10130CF000408B4238BF5B0042F166
:100CB0007D024FF4000C8B4224BF5B1A40EA0C000B
:100CC000B3EB510F24BFA3EB510340EA5C00B3EB3D
:100CD000910F24BFA3EB910340EA9C00B3EBD10F2B
:100CE00024BFA3EBD10340EADC001B0118BF5FEA7D
:100CF0001C1CE0D1FD2A3FF650AF8B4240EBC250A6
:100D000008BF20F0010070470CF0004C4CEA502066
:100D10007F32C2BFD2F1FF0340EAC250704740F4B5
:100D200000004FF00003013A37E792F0000F00F0A7
:100D3000004C02BF400010F4000F013AF9D040EA25
:100D40000C0093F0000F01F0004C02BF490011F4B9
:100D5000000F013BF9D041EA0C0195E70CEAD153B1
:100D600092EA0C0F08D142027FF47DAF93EA0C0F98
:100D70007FF470AF084676E793EA0C0F04D14B027C
:100D80003FF44CAF08466EE730F0004C18BF31F02E
:100D9000004CCAD130F000427FF45CAF31F0004328
:100DA0007FF43CAF5FE700BF4FF0FF3C06E000BFC1
:100DB0004FF0010C02E000BF4FF0010C4DF804CDE4
:100DC0004FEA40024FEA41037FEA226C18BF7FEAF4
:100DD000236C11D001B052EA530C18BF90EA010FF6
:100DE00058BFB2EB030088BFC81738BF6FEAE17085
:100DF00018BF40F0010070477FEA226C02D15FEA21
:100E0000402C05D17FEA236CE4D15FEA412CE1D08C
:100E10005DF8040B704700BF844608466146FFE753
:100E20000FB5FFF7C9FF002848BF10F1000F0FBD35
:100E30004DF808EDFFF7F4FF0CBF012000205DF82E
:100E400008FB00BF4DF808EDFFF7EAFF34BF0120B3
:100E500000205DF808FB00BF4DF808EDFFF7E0FF4C
:100E600094BF012000205DF808FB00BF4DF808ED9D
:100E7000FFF7D2FF94BF012000205DF808FB00BF00
:100E80004DF808EDFFF7C8FF34BF012000205DF8E2
:100E900008FB00BF4FEA4002B2F1FE4F0FD34FF004
:100EA0009E03B3EB12620DD94FEA002343F00043D7
:100EB00010F0004F23FA02F018BF404270474FF085
:100EC0000000704712F1610F01D1420205D110F00C
:100ED000004008BF6FF0004070474FF000007047BF
:100EE00042000ED2B2F1FE4F0BD34FF09E03B3EB94
:100EF000126209D44FEA002343F0004323FA02F0C0
:100F000070474FF00000704712F1610F01D14202AB
:100F100002D14FF0FF3070474FF00000704700BF24
:100F2000844641EA000313F0030349D1403A23D336
:100F30000B6803604B6843608B688360CB68C36059
:100F40000B6903614B6943618B698361CB69C36141
:100F50000B6A03624B6A43628B6A8362CB6AC36229
:100F60000B6B03634B6B43638B6B8363CB6BC36311
:100F700040304031403ADBD230320BD30B68036053
:100F80004B6843608B688360CB68C360103010315E
:100F9000103AF3D20C3205D351F8043B40F8043B2D
:100FA000043AF9D2043208D0D2071CBF11F8013B31
:100FB00000F8013B01D30B8803806046704700BFF7
:100FC000082A13D38B07B1D010F00303AED0C3F1BE
:100FD0000403D21ADB071CBF11F8013B00F8013BE8
:100FE000A4D331F8023B20F8023B9FE7043AD9D35F
:100FF000013A11F8013B00F8013BF9D20B7803707C
:101000004B7843708B788370604670474FF0FF3C9D
:1010100006E000BF4FF0010C02E000BF4FF0010CF2
:101020004DF804CD4FEA410C7FEA6C5C4FEA430C6B
:1010300018BF7FEA6C5C1BD001B050EA410C0CBFBA
:1010400052EA430C91EA030F02BF90EA020F00201C
:10105000704710F1000F91EA030F58BF994208BF83
:1010600090422CBFD8176FEAE37040F00100704740
:101070004FEA410C7FEA6C5C02D150EA013C07D197
:101080004FEA430C7FEA6C5CD6D152EA033CD3D0E2
:101090005DF8040B704700BF8446104662468C46DC
:1010A0001946634600E000BF01B5FFF7B7FF00280F
:1010B00048BF10F1000F01BD4DF808EDFFF7F4FF38
:1010C0000CBF012000205DF808FB00BF4DF808EDC3
:1010D000FFF7EAFF34BF012000205DF808FB00BFE6
:1010E0004DF808EDFFF7E0FF94BF012000205DF808
:1010F00008FB00BF4DF808EDFFF7CEFF94BF0120BD
:1011000000205DF808FB00BF4DF808EDFFF7C4FFB5
:1011100034BF012000205DF808FB00BF4FEA410CFE
:101120007FEA6C5C02D150EA013C0AD14FEA430CE1
:101130007FEA6C5C02D152EA033C02D14FF000001E
:1011400070474FF0010070474FEA410212F500125C
:1011500015D211D56FF47873B3EB625212D94FEAFE
:10116000C12343F0004343EA505311F0004F23FAE8
:1011700002F018BF404270474FF00000704750EA3D
:10118000013005D111F0004008BF6FF000407047FA
:101190004FF00000704700BF53B94AB9002908BF9B
:1011A00000281CBF4FF0FF314FF0FF3000F076B940
:1011B000ADF1080C6DE904CE00F006F8DDF804E0AE
:1011C000DDE9022304B070472DE9F047089E0D4683
:1011D00004468846002B4DD18A42944668D9B2FA1B
:1011E00082F252B101FA02F3C2F1200120FA01F1B8
:1011F0000CFA02FC41EA030894404FEA1C41B8FB98
:10120000F1F71FFA8CFE01FB178807FB0EF0230C89
:1012100043EA084398420AD91CEB030307F1FF3560
:1012200080F01E81984240F21B81023F63441B1AEA
:10123000B3FBF1F001FB103300FB0EFEA4B244EA55
:101240000344A6450AD91CEB040400F1FF3380F0E7
:101250000981A64540F20681644402380021A4EBCE
:101260000E0440EA07401EB10023D440C6E9004303
:10127000BDE8F0878B4208D9002E00F0EE800021F7
:10128000C6E900050846BDE8F087B3FA83F10029F6
:101290004AD1AB4202D3824200F2FC80841A65EB51
:1012A000030301209846002EE2D0C6E90048DFE79C
:1012B00002B9FFDEB2FA82F2002A40F09180A1EB7F
:1012C0000C0001214FEA1C471FFA8CFEB0FBF7F31C
:1012D00007FB1300250C45EA00450EFB03F0A8426E
:1012E00008D91CEB050503F1FF3802D2A84200F231
:1012F000CE8043462D1AB5FBF7F007FB10550EFBC9
:1013000000FEA4B244EA0544A64508D91CEB040437
:1013100000F1FF3502D2A64500F2B6802846A4EBC4
:101320000E0440EA03409EE7C1F120078B4022FAF9
:1013300007FC4CEA030C25FA07FA4FEA1C49BAFBF2
:10134000F9F820FA07F309FB18AA8D401FFA8CFE62
:101350001D4300FA01F308FB0EF02C0C44EA0A448A
:10136000A04202FA01F20BD91CEB040408F1FF3A87
:1013700080F08880A04240F28580A8F10208644491
:10138000241AB4FBF9F009FB104400FB0EFEADB2C9
:1013900045EA0444A64508D91CEB040400F1FF35D6
:1013A0006CD2A6456AD90238644440EA0840A0FBE2
:1013B0000295A4EB0E04AC42C846AE4656D353D0B9
:1013C000002E69D0B3EB080264EB0E0422FA01F39D
:1013D00004FA07F71F43CC40C6E90074002147E731
:1013E0000CFA02FCC2F1200125FA01F34FEA1C4776
:1013F00020FA01F195400D43B3FBF7F107FB1133E0
:101400001FFA8CFE280C40EA034001FB0EF38342D6
:1014100004FA02F408D91CEB000001F1FF382FD2C6
:1014200083422DD902396044C01AB0FBF7F307FBA1
:101430001300ADB245EA004503FB0EF0A84208D9FF
:101440001CEB050503F1FF3816D2A84214D9023B64
:101450006544281A43EA014138E73146304607E738
:101460002F46E4E61846F9E64B45A9D2B9EB020847
:1014700065EB0C0E0138A3E74346EAE7284694E7FC
:101480004146D1E7D0467BE76444023847E7023B58
:1014900065442FE7084606E73146E9E6704700BF96
:1014A00040F0BF6040F40030014BD860704700BF8F
:1014B00000ED00E0C378FBB1154BDA68D243C2F30C
:1014C0000222C2F1040C0F2323FA02F2417801FA3E
:1014D0000CF1837813400B431B010278DBB20D49FA
:1014E0000A4482F80033037803F01F005B090122ED
:1014F000824041F823207047037803F01F015B0905
:1015000001228A402033034941F82320704700BF5D
:1015100000ED00E000E100E030B5CB7803F00F0211
:10152000964613F0100F03D091F802E04EEA020E37
:101530000B7803B30468002301E042610133072BF9
:1015400018D801229A40B1F800C032EA0C05F5D152
:101550004FEA830C0F2505FA0CF524EA05040EFA70
:101560000CFC4CEA0404CD78282DE6D0482DE5D1BA
:101570000261E3E704600B88FF2B25D94468002350
:1015800003E0CD78482D1CD00133072B1BD803F185
:10159000080C012202FA0CF2B1F800C032EA0C0584
:1015A000F2D14FEA830C0F2505FA0CF524EA050465
:1015B0000EFA0CFC4CEA0404CD78282DE1D14261EE
:1015C000DFE70261E0E7446030BD0AB101617047C6
:1015D0004161704710B4294B5B6803F00C03042B86
:1015E0002BD0082B2CD013B1254B036001E0244BEA
:1015F000036022494B68C3F30313224CE35CDAB265
:101600000368D34043604A68C2F30222A25CD2B2AC
:1016100023FA02F282604A68C2F3C222A25CD2B20A
:10162000D340C3604A68C2F3813217498A5CD2B2A0
:10163000B3FBF2F3036110BC7047114B0360D8E7B2
:101640000E4A53685268C3F38343023312F4803F57
:1016500004D10E4A02FB03F30360CAE7074A52684B
:1016600012F4003F04D0094A02FB03F30360C0E711
:10167000034A02FB03F30360BBE700BF0010024014
:1016800000127A00040000200000002000093D0044
:1016900021B1054A9369184390617047024A9369E2
:1016A00023EA0000906170470010024021B1054A12
:1016B000D3691843D0617047024AD36923EA000016
:1016C000D06170470010024000B5B0F820E01FFA6A
:1016D0008EFE2EF0010E1FFA8EFEA0F820E0B0F86C
:1016E00018C01FFA8CFCB0F820E01FFA8EFE2CF018
:1016F000F30C1B019BB213434CEA030C124A9042B9
:1017000017D0124B984214D0B0F1804F11D0A3F5EE
:10171000983398420DD003F58063984209D003F5C1
:101720008063984205D02EF00A03194341F001016D
:1017300004E02EF00203194341F00101A0F818C0A3
:1017400001845DF804FB00BF002C0140003401401F
:1017500010B5B0F820C01FFA8CFC2CF0100C1FFA4A
:101760008CFCA0F820C0B0F818E0B0F820C01FFA38
:101770008CFC0C01A4B22EF4407E4FEA0E5E4FEAC0
:101780001E5E1B039BB243EA0E03120292B21A437F
:10179000134B984219D003F50063984215D0B0F16D
:1017A000804F12D0A3F5983398420ED003F5806392
:1017B00098420AD003F58063984206D02CF0A00C22
:1017C0004CEA010C4CF0100C05E02CF0200C4CEA1B
:1017D000040C4CF0100C0283A0F820C010BD00BF18
:1017E000002C014030B50C46B0F820C01FFA8CFC2C
:1017F0002CF4807C1FFA8CFCA0F820C0B0F81CE010
:101800001FFA8EFE018C89B22502ADB22EF0F30EC6
:101810001B019BB213434EEA0303124A904219D0B4
:1018200002F50062904215D0B0F1804F12D0A2F5BF
:10183000983290420ED002F5806290420AD002F5B2
:101840008062904206D021F4206C4CEA040141F4FD
:10185000807104E021F40071294341F48071838395
:10186000018430BD002C014010B5B0F820C01FFA33
:101870008CFC2CF4805C1FFA8CFCA0F820C0B0F823
:101880001CE0B0F820C01FFA8CFC0C03A4B22EF4AC
:10189000407E4FEA0E5E4FEA1E5E120292B242EAAC
:1018A0000E021B039BB21343144A90421DD002F553
:1018B0000062904219D0B0F1804F16D0A2F5983254
:1018C000904212D002F5806290420ED002F5806202
:1018D00090420AD02CF4007C4FEA4C4C4FEA5C4C0E
:1018E00041EA0C0141F4805104E02CF40051214301
:1018F00041F480518383018410BD00BF002C01405E
:1019000003889BB2214A904212D002F500629042B5
:101910000ED0B0F1804F0BD0A2F59832904207D094
:1019200002F58062904203D002F58062904203D1BA
:1019300023F070034A881343154A904208D002F5F9
:101940008062904204D023F440739BB2CA88134350
:1019500003808B8883850B8803850C4B98420FD0BE
:1019600003F5006398420BD003F54063984207D01B
:1019700003F58063984203D003F58063984201D158
:101980000B7A038601238382704700BF002C01403D
:101990000010004010B4038C9BB223F001039BB2F3
:1019A0000384038C9BB2B0F804C01FFA8CFC028B3A
:1019B00092B222F073020C88224323F002030C89B6
:1019C00023434C882343154CA0420FD004F50064F8
:1019D000A0420BD004F54064A04207D004F5806417
:1019E000A04203D004F58064A0420FD123F0080385
:1019F0004C89234323F004038C8823432CF4407C3C
:101A00008C894CEA040CCC8944EA0C0CA0F804C084
:101A10000283CA888286038410BC7047002C014070
:101A200010B5038C9BB223F480539BB20384038CC8
:101A30009BB2B0F804E01FFA8EFE828B92B222F4C1
:101A4000E64C0A88120292B24CEA020223F40053D6
:101A5000B1F808C04FEA0C3C1FFA8CFC43EA0C0CAE
:101A60004B881B039BB243EA0C030C4CA04203D0EF
:101A700004F50064A04209D12EF4804EB1F80CC0E8
:101A80004FEA8C1C1FFA8CFC4EEA0C0EA0F804E006
:101A90008283CA88A0F84020038410BD002C014036
:101AA0004FF6FF73838000230380C380438003725B
:101AB000704700230380438001228280C38003811A
:101AC000704729B103889BB243F00103038070473C
:101AD00003889BB223F001039BB20380704749B196
:101AE000B0F844306FEA43436FEA53439BB2A0F827
:101AF00044307047B0F84430C3F30E03A0F84430CC
:101B0000704722B183899BB21943818170478389D1
:101B1000C94389B219408181704710B50489A4B2C4
:101B2000B0F818C01FFA8CFCB0F820E01FFA8EFE47
:101B300024F007040C432CF4407C2CF0030C4CF4F0
:101B4000807C4CF0010C2EF0220E1B019BB2134343
:101B50004EEA030E0481A0F818C0A0F820E010BDE2
:101B600029B103889BB243F0800303807047038848
:101B70009BB223F080039BB203807047038B9BB220
:101B800023F008030B4303837047838B9BB223F43A
:101B90000063090289B20B438383704781847047D5
:101BA00081867047A0F840107047038B9BB223F0EA
:101BB0000C039BB20383038B9BB20B4303837047DD
:101BC000038B9BB223F440639BB20383038B9BB2D2
:101BD000090289B20B4303837047838B9BB223F0C6
:101BE0000C039BB28383838B9BB20B43838370472D
:101BF000838B9BB223F440639BB28383838B9BB222
:101C0000090289B20B438383704738B505460C46F9
:101C10000B886BB1042B15D0082B1DD00B898A883B
:101C20004988FFF721FEE1882846FFF7E1FF38BD2C
:101C30000B898A884988FFF747FDE1882846FFF726
:101C4000B4FFF4E70B898A884988FFF781FDE188B2
:101C50002846FFF7B5FFEAE70B898A884988FFF72E
:101C6000C1FDE1882846FFF7B8FFE0E7808C80B22D
:101C70007047C94389B201827047028A83890B4049
:101C8000114202D01BB9002070470020704701208C
:101C90007047C94389B201827047000030B587B0F0
:101CA00004460D46038A9BB2CA8823F4405313436B
:101CB000038283899BB2898828896A8901430A4300
:101CC00023F4B05323F00C031343A381A38A9BB2E4
:101CD000AA8923F440731343A38201A8FFF77AFC77
:101CE0001D4B9C4224D0039BA28912F4004F21D1AA
:101CF00003EB830303EB83032A689200B3FBF2F345
:101D0000164AA2FB031252091101642002FB103390
:101D1000A28912F4004F16D11B0132330F4AA2FBE5
:101D20000323C3F343130B439BB2238107B030BD9E
:101D3000049BD9E703EB830303EB83032A68520078
:101D4000B3FBF2F3DCE7DB003233044AA2FB0323EC
:101D5000C3F342130B43E7E7003801401F85EB5103
:101D600029B183899BB243F40053838170478389EF
:101D70009BB223F400539BB283817047C1F3421C92
:101D800001F01F01012303FA01F19C4508D0BCF1C9
:101D9000020F07D014303AB103681943016070474D
:101DA0000C30F8E71030F6E7036823EA0101016020
:101DB0007047C1F30801818070478088C0F3080034
:101DC00070470388194201D00120704700207047F6
:101DD000C94389B201807047090A01238B409BB235
:101DE000DB439BB20380704770B582B001210420B1
:101DF000FFF74EFC14238DF8073003238DF80630CF
:101E00001026ADF804600C4C01A92046FFF784FBB6
:101E10002025ADF8045001A92046FFF77DFB0122E3
:101E200031462046FFF7D1FB012229462046FFF725
:101E3000CCFB02B070BD00BF0008014010B50B4CD8
:101E4000012220212046FFF7C0FB0122102120465D
:101E5000FFF7BBFB002220212046FFF7B6FB002244
:101E600010212046FFF7B1FB10BD00BF0008014064
:101E700010B5084C002220212046FFF7A6FB0122C6
:101E800010212046FFF7A1FB012220212046FFF769
:101E90009CFB10BD0008014070B50646002413E00D
:101EA000802222410F4D324020212846FFF78DFB32
:101EB000012210212846FFF788FB00221021284626
:101EC000FFF783FB0134E4B2072CE9D9054C01226A
:101ED00010212046FFF779FB002210212046FFF752
:101EE00074FB70BD0008014010B50446FFF7A6FF63
:101EF0007820FFF7D1FF0020FFF7CEFF2046FFF745
:101F0000CBFFFFF7B5FF10BD10B50446FFF796FFF6
:101F10007820FFF7C1FF4020FFF7BEFF2046FFF704
:101F2000BBFFFFF7A5FF10BD10B50C4640F0B00099
:101F3000FFF7DAFF200940F01000FFF7D5FF04F0AB
:101F40000F00FFF7D1FF10BD38B5002509E00020D4
:101F5000FFF7DAFF0134E4B214F0800FF7D0013557
:101F6000EDB2072D05D800212846FFF7DDFF00243C
:101F7000F2E738BDF8B51546461E7600F6B24F1E9C
:101F8000FF00FFB239463046FFF7CEFF002409E0DC
:101F9000A5F120030F4A02EB0313185DFFF7B4FF0E
:101FA0000134E4B2072CF3D9701C3946C0B2FFF7F4
:101FB000BBFF00240BE0A5F1200304F10802054952
:101FC00001EB0313985CFFF79FFF0134E4B2072C89
:101FD000F1D9F8BD488C00080246012002E002FB5E
:101FE00000F019464B1E0029F9D170472DE9F8433E
:101FF0008146884617461E46002419E004EB080572
:10200000EDB2311B01390A20FFF7E6FFB7FBF0F014
:10201000094AA2FB0032D20802EB8202A0EB420284
:102020003032D2B229464846FFF7A4FF0134E4B269
:10203000B442E3D3BDE8F883CDCCCCCC08B50022C4
:1020400004E00133B3F57A7FFBD30132B2F57A7F36
:1020500001D20023F6E7FFF7C7FEAE20FFF744FFEB
:10206000D520FFF741FF8020FFF73EFFA820FFF7B4
:102070003BFF3F20FFF738FFD320FFF735FF00205D
:10208000FFF732FF4020FFF72FFFA120FFF72CFFC3
:10209000C820FFF729FFDA20FFF726FF1220FFF7FD
:1020A00023FF8120FFF720FFCF20FFF71DFFD9205E
:1020B000FFF71AFFF120FFF717FFDB20FFF714FFF0
:1020C0003020FFF711FFA420FFF70EFFA620FFF737
:1020D0000BFF8D20FFF708FF1420FFF705FFAF204F
:1020E000FFF702FFFFF730FF08BD000030B589B0F1
:1020F00001210420FFF7CCFA01210846FFF7D6FAA8
:102100000325ADF81C5004238DF81F3007A91F4884
:10211000FFF702FA04A8FFF7C3FC0024ADF816404D
:10212000ADF812404FF6FF73ADF81430ADF8104023
:1021300004A94FF08040FFF7E3FB234622462946DF
:102140004FF08040FFF7E9FC01A8FFF7B2FC0A233B
:10215000ADF80C3001A94FF08040FFF756FD01218A
:102160004FF08040FFF785FD012211464FF080407F
:10217000FFF7C7FC21464FF08040FFF70FFD01211C
:102180004FF08040FFF79DFC09B030BD00080140D2
:1021900030B589B001210820FFF77AFA0121042027
:1021A000FFF784FAC023ADF81C3004238DF81F30EC
:1021B00007A91C48FFF7B0F904A8FFF771FC002538
:1021C000ADF81650ADF812504FF6FF73ADF814305D
:1021D000ADF81050144C04A92046FFF791FB2B4694
:1021E0002A4603212046FFF798FC01A8FFF761FC6F
:1021F0000A23ADF80C3001A92046FFF706FD0121A6
:102200002046FFF736FD012211462046FFF779FCF4
:1022100029462046FFF7C2FC01212046FFF751FC6A
:1022200009B030BD000C01400008004038B502285C
:1022300003D004280CD0204638BD4FF08040FFF773
:1022400015FD04B200214FF08040FFF7A7FCF2E734
:10225000044D2846FFF70AFD04B200212846FFF787
:102260009DFCE8E70008004008B501214FF08040E0
:10227000FFF703FD00B908BD01214FF08040FFF7D3
:1022800008FDF8E708B501210448FFF7F6FC00B99E
:1022900008BD01210148FFF7FCFCF9E700080040F8
:1022A00000B583B001210820FFF7F2F94FF4704325
:1022B000ADF8043010238DF8073003238DF8063075
:1022C00001A90348FFF728F903B05DF804FB00BF3C
:1022D000000C014038B90E4B0122C3F8B021002296
:1022E000C3F8B4217047012802D0022808D07047F3
:1022F000074B0022C3F8B0210122C3F8B421704774
:10230000034B0022C3F8B021C3F8B421EFE700BFAC
:102310000080214238B50B4680EAE071A1EBE07104
:10232000002BB8BF5B4241F288329142A8BF1146F0
:1023300093420CDC0D4689B2064B9984064C20462C
:10234000FFF72EFCA9B22046FFF72CFC38BD41F266
:102350008835F0E7E4090020002C014008B50A4B5D
:102360009B684EF6602000FB03F3084880FB0320C7
:102370001844DB17C3EBA020FEF772FB044B186474
:1023800000F066F808BD00BFE4090020A9800AA893
:102390000C0A002010B501211B48FFF76EFC00B9A4
:1023A00010BD01211848FFF774FC0220FFF73EFF23
:1023B0004042164CA0600420FFF738FFE060A2689E
:1023C000236813442360636818446060FFF7C6FF06
:1023D000FEF760FD0E4B586480B2A083E08370B9B5
:1023E0000220FFF777FF094CA08B0146FFF792FF11
:1023F0000523A28C01210846FFF7F8FDD0E7002055
:10240000FFF768FFEFE700BF00040040E409002089
:102410000C0A002008B54FF4A060FFF741F808BD92
:102420000A4B00229A61DA611A605A609A605A6116
:10243000DA601A6100211962DA631A645A629A62D8
:10244000DA629A631A635A63596470470C0A00206F
:10245000F8B50146254DE86BFEF74CFA04462863B3
:102460004FF07C51FEF7EEFC38B14FF03F41204673
:10247000FEF706FD08B100222A631C4D2E6BA96BE6
:102480003046FEF739FA0446A8631949FEF7F8FC0E
:1024900008B3174CAC63154DAC63696A3046FEF760
:1024A00033FB07462146A86AFEF72EFB0146384655
:1024B000FEF722FA0446EF6A696B3046FEF71AFA15
:1024C00001463846FEF720FB01462046FEF714FA87
:1024D00028646E63F8BD07492046FEF7B3FC002868
:1024E000D9D0044C014B9C63D5E700BF0C0A0020F7
:1024F00000401C4600401CC60B4B1B680B4AA2FB4D
:1025000003239B09013B4FF0E0225361084BF0216C
:1025100083F823100023936107231361136963F089
:1025200001031361704700BF14000020D34D6210F7
:1025300000ED00E070B588B004460D46012140F67C
:102540000500FFF7A5F84FF41063ADF81C30182311
:102550008DF81F3003238DF81E3007A91C48FEF7A5
:10256000DBFF0026ADF81660ADF81260ADF8145030
:10257000ADF81040174C04A92046FFF7C1F96023BD
:10258000ADF80030ADF808600125ADF80450ADF8A5
:10259000066069462046FFF7FDF969462046FFF7C9
:1025A0003FFA29462046FFF79AFA08212046FFF70E
:1025B000E5FA08212046FFF7E8FA29462046FFF70A
:1025C000CFFA29462046FFF77CFA08B070BD00BF5D
:1025D00000080140002C014070B584B001210220A8
:1025E000FFF764F84723ADF8003042F20F73ADF8FF
:1025F00004300026ADF802600E4C69462046FFF715
:102600007FF9012211462046FFF77BFA1D238DF842
:102610000C3001258DF80F508DF80D6003238DF8D7
:102620000E3003A8FEF746FF29462046FFF749FA79
:1026300004B070BD0004004010B50446C1B20548A6
:10264000FFF7B7FB80210348FFF7BBFB0028F9D059
:10265000204610BD0038014008B520210448FFF78E
:10266000B0FB0028F9D00248FFF7A7FB08BD00BF68
:102670000038014030B587B001214FF48040FFF7AA
:1026800007F801210420FFF703F818238DF817300D
:102690004FF40073ADF8143003238DF81630224C3C
:1026A00005A92046FEF738FF48238DF817304FF470
:1026B0008063ADF8143005A92046FEF72DFF4FF4D6
:1026C000A060FEF7EDFE25238DF8003001248DF883
:1026D00003408DF801408DF802406846FEF7EAFE9F
:1026E0004FF4165301930023ADF810300C22ADF8CF
:1026F0000E20ADF80C30ADF80A30ADF808300B4DB7
:1027000001A92846FFF7CAFA224640F22551284679
:10271000FFF734FB21462846FFF722FB40212846DD
:10272000FFF756FB07B030BD0008014000380140FC
:1027300008B501460448FFF73CFB80210248FFF73B
:1027400040FB0028F9D008BD0038014010B5044610
:1027500002E00134FFF7ECFF20780028F9D110BD2A
:102760000FB400B59BB01CAA52F8041B009201A83C
:1027700000F0D4FA01A8FFF7E9FF1BB05DF804EB05
:1027800004B07047044B1878012801D0002070472E
:1027900000221A70704700BF570A002008B540F2A7
:1027A00025512548FFF70DFB012800D008BD224820
:1027B000FFF703FBC0B2214B1870214B1B780BB9FC
:1027C00023280DD0012B0FD0022B13D0032B18D0B0
:1027D000042B1CD040F225511748FFF7FDFAE5E71E
:1027E000174B01221A70F5E75028EDD1144B022245
:1027F0001A70EFE73038134B1870114B03221A7020
:10280000E8E73D28E4D10E4B04221A70E2E72128C4
:1028100006D00D4A1378591C11700C4AD054D9E7D0
:10282000094A11780A4B197000231370044A137077
:10283000084B01221A70CDE700380140560A0020EB
:10284000550A0020BC0A0020BD0A0020580A0020BA
:10285000540A0020570A0020024B187800221A70F0
:10286000704700BFBC0A002038B50D46FEF7F4F8EB
:1028700003E00449FEF7FCF925466B1EDCB2002D8F
:10288000F7D138BD000020412DE9F84300244FF076
:1028900001094F46A04600260DE0303D3946E8B21A
:1028A000FFF7E2FF01463046FEF726F806460137FD
:1028B000FFB20134E4B2154B1B78A3421ED9144B6E
:1028C0001D5D2D2D14D0B8F1000FE6D12E2D12D0A4
:1028D00010493046FEF718F906462846FEF7C0F8BC
:1028E0003146FEF709F80C49FEF704F80646E0E722
:1028F0004FF0FF39DDE74FF00108DAE74846FEF711
:10290000AFF83146FEF700F9BDE8F883540A00201D
:10291000580A002000002041000040422DE9F0410B
:102920008AB0FFF78BFBFFF7E7FDFFF773FDFFF7BB
:10293000A1FE41F61F410020FFF7FCFDFFF74CFE12
:10294000FFF7D4FBFFF724FCFFF7AAFCFFF768FDB5
:10295000264A00239360D360136053600693079365
:10296000089309933DE0FFF777FF441EFFF78CFFC4
:102970000AAB03EB840444F8100C1D4B069A5A6210
:10298000079A9A62089ADA63069F089E174BB3F873
:1029900024803846FDF740FD04460D46CDF81080F2
:1029A0003046FDF739FDCDE902010798FDF734FD0A
:1029B000CDE9000122462B460E48FFF7D1FE3846EE
:1029C000FEF78EFA0246032302210846FFF70EFBAC
:1029D0003046FEF785FA0246042302210320FFF762
:1029E00005FBFFF7CFFE0028BDD1CDE7E4090020AD
:1029F0000C0A0020389200087047FEE7FEE7FEE769
:102A0000FEE770477047704770470120704708B570
:102A100000F008F9162303604FF0FF3008BD08B539
:102A20004FF0FF31FFF7F3FFFEE770B50C46164697
:102A3000002506E0FFF710FE214601F8010B0135E5
:102A40000C46B542F6DB304670BD70B50C461646F6
:102A5000002504E014F8010BFFF7EEFD0135B54247
:102A6000F8DB304670BD000008B503460B4A12681B
:102A700042B10A4A106803446A46934206D8074A9C
:102A8000136008BD054A06491160F2E700F0CAF874
:102A90000C2303604FF0FF30F3E700BFC00A0020B3
:102AA000100B00204FF0FF3070474FF400534B6085
:102AB00000207047012070470020704782B000233B
:102AC000019300932C4A136843F4803313602A4B1C
:102AD0001B6803F400330093019B01330193009BB7
:102AE0001BB9019BB3F5A06FF1D1234B1B6813F405
:102AF000003F06D001230093009B012B04D002B0BD
:102B0000704700230093F7E71C4B1A6842F010024D
:102B10001A601A6822F003021A601A6842F0020270
:102B20001A60A3F580535A685A605A685A605A6806
:102B300042F480625A605A6822F47C125A605A68E1
:102B400042F4E8125A601A6842F080721A600A4B26
:102B50001B6813F0007FFAD0074B5A6822F003027B
:102B60005A605A6842F002025A60034B5B6803F0F5
:102B70000C03082BF9D1C2E70010024000200240EC
:102B800008B5FFF79BFF08BD08B5104B1A6842F067
:102B900001021A6059680E4A0A405A601A6822F007
:102BA000847222F480321A601A6822F480221A6039
:102BB0005A6822F4FE025A604FF41F029A60FFF72F
:102BC000DFFF044B4FF000629A6008BD0010024026
:102BD0000000FFF800ED00E0FFF7D6FF0B480C49BE
:102BE0000C4A002302E0D458C4500433C4188C4269
:102BF000F9D3094A094C002301E013600432A242D0
:102C0000FBD300F015F8FFF789FE704700000020A5
:102C1000C80900205C960008C80900200C0B0020A1
:102C2000FEE70000014B1868704700BF1800002045
:102C300070B50D4E0D4D761BB61006D0002455F81C
:102C4000043B01349847A642F9D1094E094D05F0DD
:102C5000EFFF761BB61006D0002455F8043B013474
:102C60009847A642F9D170BD5096000850960008CA
:102C70005896000850960008830730B548D0541E77
:102C8000002A3FD00346CAB201E0013C3AD303F820
:102C9000012B9D07F9D1032C2DD9CDB245EA05258D
:102CA0000F2C45EA054536D9A4F1100222F00F0C8D
:102CB00003F1200EE6444FEA121C03F1100242E930
:102CC000045542E9025510327245F8D10CF1010267
:102CD00014F00C0F03EB021204F00F0C13D0ACF144
:102CE000040323F003030433134442F8045B9342C8
:102CF000FBD10CF003042CB1CAB21C4403F8012B25
:102D00009C42FBD130BD64461346002CF4D1F9E758
:102D100003461446BFE71A46A446E0E78C4630B5A2
:102D200004466FF000451346084A9BB01068084AF5
:102D3000694603926246059502950094049400F05A
:102D400037F80022009B1A701BB030BD180000201D
:102D50000802FFFF024B13B1024800F005B87047AC
:102D600000000000752D0008002301461A46184691
:102D700001F070BD38B5084B084D5B1B9C1007D0A7
:102D8000043B1D44013C55F804399847002CF9D107
:102D9000BDE8384005F052BF5C9600085896000820
:102DA000704700BF704700BF704700BF704700BF4B
:102DB0002DE9F04FD5B00C460C9191460E930A9038
:102DC00002F0DCFE03681846179303F0C9FDA389DF
:102DD0001690190603D52369002B00F08F87002475
:102DE0002BAB224698464D46CDE9294428931294B0
:102DF00000230024CDE914342B78CDE91922CDE944
:102E00001B2218920892002B00F0CE81AA4604E003
:102E10001AF8013F002B00F00981252BF8D1BAEBFD
:102E2000050640F007819AF80030002B00F0BC81C5
:102E300000234FF0FF324FF02B0920241F469AF851
:102E4000016007920AF1010A8DF8833009930AF1B3
:102E5000010AA6F120035A2B00F22081DFE813F0CB
:102E6000CA021E011E01C5021E011E011E01A3028F
:102E70001E011E016A00F3021E014702D9021E0153
:102E8000D4025B005B005B005B005B005B005B00EF
:102E90005B005B001E011E011E011E011E011E01C2
:102EA0001E01B0011E010B027A00B001B001B00199
:102EB0001E011E011E011E019E021E011E01B60002
:102EC0001E011E011E0119021E014C021E011E01DF
:102ED0003F071E011E011E011E011E011E011E01D3
:102EE0001E01B0011E010B027C00B001B001B00157
:102EF00091027C0075001E0184021E017002B80060
:102F00005E0275001E01190272001C071E011E01DF
:102F10001F071E0172000022A6F130031AF8016B90
:102F200002EB820203EB4202A6F13003092BF5D932
:102F300009928EE70E9B53F8042B002A09920E93F8
:102F4000C0F2D2819AF8006081E79AF8006047F0F9
:102F500020077CE747F01007BA060E9B40F17D8101
:102F6000073323F007031A465B6852F8084B99466B
:102F70000E92002BC0F27F85079B013301F0398050
:102F800054EA090327F0800B00F005850A2C79F13B
:102F9000000380F0938701235F4630348DF84F4162
:102FA0000B930DF24F15079A0B9900238A42B8BF75
:102FB0000A4606929DF883200D930F931393109366
:102FC000002A7CD0069B0133069378E047F0100777
:102FD00017F0200900F032810E9B073323F007031E
:102FE000D3F8049053F8084B0E93002327F4806B1A
:102FF00000228DF88320079A511C00F02A8254EA9F
:1030000009012BF0800740F02382002A41F02B8039
:10301000002B40F0C5841BF001030B9300F0548596
:1030200030230DF24F158DF84F31BCE7BAEB050692
:1030300000F0BA802A9BC8E9005633442A93299BA2
:103040000133072B299305DC08F10808089B33445A
:103050000893E8E60C990A9828AA03F0E3FC80B9E3
:103060000DF1AC08F2E70C990A9828AA03F0DAFCF3
:10307000002800F08A800D9B1BB10D990A9802F080
:103080007DFC0C9B9B8913F0400F089B18BF4FF0F1
:10309000FF330893089855B0BDE8F08F002E00F07C
:1030A0008380012300228DF8EC6006933BAD8DF800
:1030B00083200B930D9207920F921392109217F0A8
:1030C000020302D006990231069117F0840B07D152
:1030D00009990698A1EB0009B9F1000F00F33683B6
:1030E0002A9C82B10122C8F80420299A01340132B5
:1030F0000DF18301072A2A942992C8F8001000F3E1
:10310000698308F108087BB10223C8F80430299BC1
:103110000234013321AA072B2A942993C8F80020EE
:1031200000F36C8308F10808BBF1800F00F02E82D9
:10313000079B0B9AA3EB020BBBF1000F00F371820C
:10314000FB0500F1C5810B9BC8F800501C44C8F872
:103150000430299B2A940133072B299300F3EA8238
:1031600008F108087B0705D5099B069A9D1A002DD2
:1031700000F35083DDE9083206998A42ACBF9B1800
:103180005B180893002C7FF46EAF002329930D9BEE
:103190001BB10D990A9802F0F1FB55460DF1AC08F0
:1031A0002B78002B7FF432AE2A9B002B3FF469AFC3
:1031B0000C9C0A98214628AA03F034FCA38962E7F4
:1031C0000E9B073323F00702F2E80234CDE91434F2
:1031D000DDE9143424F00044994618460E92214645
:1031E0004FF0FF32B64BFDF799FF002840F0968470
:1031F000484621464FF0FF32B14BFDF771FF0028E2
:1032000040F08C84DDE9140100220023FDF75EFF0D
:10321000002840F0A6879DF8832000210320A94DB7
:10322000A94B27F080070D910690472EC8BF1D4679
:1032300007910B900F9113911091C1E617F01003B5
:1032400040F0628417F0400200F07B870E9A9946A6
:1032500052F8044B0E92A4B2C7E653F8044B0E93F7
:10326000FB0600F141847D0640F13B8444F3C03904
:103270004B4624B27DE6012000220E9B069053F8B7
:10328000041B3BAD8DF883208DF8EC100E930B9052
:1032900010E74FF000090E9C079B54F8045B8DF873
:1032A0008390002D00F0EE865A1C00F060851A46CF
:1032B0004946284602F012FF0D90002801F09E803A
:1032C0000D9B9DF883205B1B0B9323EAE373CDF8E2
:1032D0001C900E940693CDF83490CDF83C90CDF828
:1032E0004C90CDF840906BE6099B5B4209939AF8AD
:1032F000006047F00407AAE547F0100B1BF0200917
:1033000000F0AA830E9B073323F007031A4652F8F6
:10331000084BD3F804900E92012369E630227826F8
:103320000E9B8DF8842053F8044B684A0E934FF09F
:103330000009022347F0020B8DF88560189257E6CA
:10334000BD0600F1D683FC0600F19386780600F1F5
:103350005D87B90540F18D860E9B089953F8042BC3
:10336000554611700E931BE79AF800606C2E03BF50
:103370009AF8016047F020070AF1010A47F01007A8
:1033800065E59AF80060682E03BF9AF8016047F47B
:1033900000770AF1010A47F0400758E59AF8006003
:1033A00047F0080753E50A9E304602F0E7FB436802
:1033B00018461B9303F0D4FA034630461C931E466E
:1033C00002F0DCFB83681993002E3FF4BBAD199B20
:1033D000002B3FF4B7AD199B1B78002B3FF4B2AD27
:1033E0009AF8006047F4806731E59AF8006047F08A
:1033F00001072CE59DF88330002B7FF4A3AD9AF8EC
:1034000000608DF8834022E59AF8006047F080075D
:103410001DE5524612F8016B2A2E01F0EB81A6F150
:103420003003092B924698BF002201F203801AF85C
:10343000016B02EB820203EB4202A6F13003092B7F
:10344000F5D9079205E59AF800608DF88390FEE4BF
:10345000BB46012B3FF49AAD022B54AD12D1189A02
:1034600004F00F03D35C240944EA09744FEA1919E4
:1034700005F8013D54EA0903F2D154AB5B1B5F46EA
:103480000B9390E504F00703E40844EA49744FEA1B
:10349000D909303354EA09012A4605F8013DF1D132
:1034A0001BF0010FE9D0302BE7D03023023A05F8AA
:1034B000013C54AB9B1A5F4615460B9373E500BF66
:1034C000FFFFEF7F509200085492000860920008BE
:1034D000652E40F3E980DDE9140100220023FDF7A9
:1034E000EBFD002800F0D2810123C8F80430299BAD
:1034F000BF4A01330134072B2A942993C8F80020CE
:1035000000F37A8508F10808229B129A934280F210
:10351000D782169B179A1C44C8E90023299B2A943A
:103520000133072B299300F3DD8308F10808129B70
:103530005D1E002D7FF716AE102D41F34181DFF89F
:10354000B492224649461026B946299B0F46DDF81B
:1035500028B00C9C05E008F10808103D102D40F340
:10356000588501331032072BC8E90076CDE929329E
:10357000F1DD2146584628AA03F054FA00287FF4CA
:103580007AADDDE929320DF1AC08E6E7099B069A30
:10359000A3EB020BBBF1000F7FF7CAADBBF1100F1D
:1035A00041F30580DFF84C9241462046A8464C4640
:1035B0001023299A0C9DDDF8289006E0ABF1100B42
:1035C000BBF1100F01F1080119DD01321030072A9B
:1035D000C1E90043CDE92920F0DD2946484628AA63
:1035E00003F020FA00287FF446ADDDE92920ABF195
:1035F000100BBBF1100F4FF010032BA9E5DC454673
:10360000A1468846044601325C44072ACDE92924B4
:10361000C8F80090C8F804B000F3188508F108084D
:1036200086E5BBF1100F40F39785DFF8C89141465E
:103630002046A8464C461023299A0C9DDDF8289078
:1036400006E0ABF1100BBBF1100F01F1080119DD21
:1036500001321030072AC1E90043CDE92920F0DD0D
:103660002946484628AA03F0DDF900287FF403AD77
:10367000DDE92920ABF1100BBBF1100F4FF0100367
:103680002BA9E5DC4546A1468846044601325C4448
:10369000072ACDE92924C8F80090C8F804B000F33F
:1036A000CE8108F108084BE5129B012B40F37E8187
:1036B0000123299E01341E44072EC8F800502A9485
:1036C000C8F80430299600F3E18108F10808169B38
:1036D0000136179A1C44072EC8E90023CDE9296456
:1036E00000F3E18108F108080022DDE9140100235C
:1036F000FDF7E2FC002840F07681129B0136013B89
:1037000001351C44072EC8F800502996C8F804302B
:103710002A9400F35B8108F108081A9B01361C44C7
:10372000C8F80430072E24ABCDE92964C8F800306E
:103730007FF716AD0C990A9828AA03F073F90028B0
:103740007FF499AC2A9C0DF1AC080BE5B9F1100F90
:1037500040F35086DDE929214046CDE91D36B846C3
:1037600010244F460C9EA9460A9D04E0103F102FDE
:1037700000F1080016DD01321F4B1031072AC0E9A5
:103780000034CDE92921F1DD3146284628AA03F08D
:1037900049F900287FF46FACDDE92921103F102F93
:1037A0002BA8E8DC4D46DDE91D36B9464746804684
:1037B00009EB010401321049072ACDE92924C8F890
:1037C0000490C8F8001000F3C3839DF8832008F12B
:1037D000080886E40C990A9828AA1D9303F022F998
:1037E00000287FF448AC2A9C1D9B0DF1AC088AE4AC
:1037F00090920008A4920008949200080C990A98EC
:1038000028AA03F00FF900287FF435AC2A9C0DF1AB
:10381000AC0889E4102D40F3C4861026299B0A9F2A
:10382000DDF8309004E0103D102D08F1080817DD98
:103830000133B84A1034072BC8E90026CDE92934F2
:10384000F1DD4946384628AA03F0ECF800287FF459
:1038500012ACDDE92934103D102D0DF1AC08E7DC88
:103860000133AC4A2C44072BCDE92934C8F8045065
:10387000C8F800207FF77EAC0C990A9828AA03F0BC
:10388000D1F800287FF4F7AB2A9C73E42299002931
:1038900040F36F83DDF84090129B9945A8BF99468D
:1038A000B9F1000F0BDD299B4C440133072BC8E90C
:1038B00000592A94299300F31D8508F10808109EE9
:1038C000B9F1000FA8BFA6EB0906002E00F3258270
:1038D000DDF840B07805AB4400F15F82229B129A7C
:1038E000934202DBF90740F17684169A1799144443
:1038F000C8E90012299A2A940132072A299200F372
:10390000138508F10808129AAE18A6EB0B06D51A13
:10391000AE42A8BF2E46002E0DDD299B3444013354
:10392000072BC8F800B0C8F804602A94299300F364
:10393000718508F10808002EA8BFAD1B002D7FF788
:1039400011AC102D40F33C87DFF8CC91224649465C
:103950001026B946299B0F46DDF828B00C9C05E0DF
:1039600008F10808103D102D40F353830133103245
:10397000072BC8E90076CDE92932F1DD214658460A
:1039800028AA03F04FF800287FF475ABDDE929324F
:103990000DF1AC08E6E7079B002B7FF4FCAA5F461D
:1039A000002354AD07930B93FFF7FDBAFA073FF5D9
:1039B0007FAE0123299E01341E44072EC8F8005013
:1039C0002A94C8F8043029967FF7A5AE0C990A9876
:1039D00028AA03F027F800287FF44DABDDE929641D
:1039E0000DF1AC0899E6129B5D1E002D7FF795AE98
:1039F000102D40F3DF86224607974FF0100BDFF8BB
:103A000018910A9C0C9F05E008F10808103D102D44
:103A100040F37F8301361032072EC8E9009BCDE9C1
:103A20002962F1DD3946204628AA02F0FBFF002872
:103A30007FF421ABDDE929620DF1AC08E6E70C99D2
:103A40000A9828AA02F0EEFF00287FF414AB2A9C03
:103A50000DF1AC08FFF774BB1BF010030E9A3AD1BE
:103A60001BF0400133D052F8044B99460E920123CB
:103A7000A4B2FFF7BDBA2D2364428DF88330BB4654
:103A80004FF0010369EB4909FFF7B5BA0C990A98A1
:103A900028AA02F0C7FF00287FF4EDAADDE9296417
:103AA0000DF1AC0813E60C990A9828AA02F0BAFFA7
:103AB00000287FF4E0AADDE929640DF1AC0813E6E3
:103AC000FD077FF54FAB24E554ADFFF76CBA1BF44F
:103AD000007940F08A8352F8044B01230E92FFF7DD
:103AE00087BAB80500F19B834FEAE4794B46FFF7AC
:103AF00040BA0E9B089853F8041BC2175546C1E9FB
:103B000000020E93FFF74CBB0E9B53F8044B0E9331
:103B1000FFF76BBA94920008A4920008DDE9140143
:103B200002460B46FDF7FAFA002840F0E985612EBF
:103B300000F07D85412E00F08B84079B013300F05F
:103B40008F8326F02003472B069300F08F85DDE955
:103B5000141247F480730F931346002BC0F2B08504
:103B60000B9300238B461D930D93069B462B00F071
:103B7000E983452B00F0468507990B9B01910221B3
:103B8000009126A9049123A9039122A95A460A98D3
:103B9000029100F03DFF069B0546472B40F03A8618
:103BA00017F0010FB9460F9F40F0FE84269B5B1B68
:103BB0001293069B472B00F06E83069B462B00F06A
:103BC000F083229B1093109B069A013B412A22937B
:103BD00000F0BB850021F2B2002B8DF89020B6BF1B
:103BE0002D222B22109B8DF89120B8BFC3F1010329
:103BF000092B40F39B850DF19F0C6246B64F1C4686
:103C0000104687FB0312D917C1EBA20101EB810219
:103C1000A3EB42023032632C00F8012C0B4600F17A
:103C2000FF32ECDC3033811EDBB28C4502F8013C04
:103C300040F2F9850DF1920101E012F8013B944543
:103C400001F8013BF9D10DF1A1030DF192021B1A0C
:103C5000134424AA9B1A1A93129B1A9A012B1A44F2
:103C60000B9240F381850B9B169A13440B93002310
:103C70000B9A29F4806722EAE27247F480770F9367
:103C80000692139310931D9B002B40F02C839DF8FC
:103C900083200793FFF794B9BB46FFF72FBB8F4BE9
:103CA000189317F0200900F0F5800E9B073323F0DE
:103CB0000703D3F8049053F8084B0E93F80709D57F
:103CC00054EA090306D030238DF8856047F00207D7
:103CD0008DF88430022327F4806BFFF789B9804B7D
:103CE0001893DEE70C990A9828AA02F09BFE002898
:103CF0007FF4C1A92A9C0DF1AC0818E440210A9870
:103D000001F040FF0C9B18601861002800F09785B7
:103D100040230C9A5361FFF762B8102E40F376856A
:103D2000DFF8C091424648462146A846B9464FF0C2
:103D3000100B0746299B0A9C0C9D04E00832103E9C
:103D4000102E40F3138201331031072BC2E9007BA0
:103D5000CDE92931F2DD2946204628AA02F062FE8B
:103D600000287FF488A9DDE929312BAAE7E7284656
:103D7000CDF81C900E9402F0F3FD20EAE0739DF85C
:103D800083200B90CDF83490CDF83C90CDF84C903A
:103D9000CDF840900693FFF713B9129B4246DDF829
:103DA0004C80EB185E460793CDF82CA01097214667
:103DB000199FDDF87090DDF828A0DDF830B00F9B7A
:103DC0001395B8F1000F2ED083BB013F08F1FF38E7
:103DD0001B9B4944C2E90039299B2A910133072BD7
:103DE000299360DC0832079B38789B1B8342A8BF6D
:103DF0000346002B1C460BDD299819440130072887
:103E0000C2E900632A91299000F3148138780832BE
:103E1000002CB4BF0546051B002D0BDC06440F9B90
:103E2000B8F1000FD0D1002B00F026820F9B013B90
:103E30000F93CDE7102D40F39D841024299804E0C2
:103E4000103D102D02F1080216DD0130254B103116
:103E50000728C2E90034CDE92901F1DD5946504671
:103E600028AA02F0DFFD00287FF405A9DDE9290179
:103E7000103D102D2BAAE8DC01301A4B29440728ED
:103E8000CDE929015560136000F34182387808328A
:103E90000644C4E717F0100300F0A0800E9B53F80F
:103EA000044B0E930AE75946504628AA02F0BAFD81
:103EB00000287FF4E0A82A992BAA94E700230BF4AA
:103EC00080620696CDF82CA0CDF8348092461E462E
:103ED000DDF8648054AF14E067666666609200089F
:103EE00074920008A49200080023204649460A2242
:103EF000FDF752F90A2C79F100031BD304468946D9
:103F00002F4620460A2200234946FDF745F9303264
:103F10007D1E013607F8012CBAF1000FE4D098F8A5
:103F200000309E42E0D1FF2EDED00A2C79F1000352
:103F300080F0308154AB5B1BDDF82CA0CDF86480A1
:103F400012965F46069EDDF834800B93FFF72BB880
:103F50000C990A9828AA1D9302F064FD00287FF4AA
:103F60008AA89DF883202A9C1D9B0DF1AC08FFF7C1
:103F7000B8B80123C8F80430299BBC4A0133013486
:103F8000072B2A942993C8F8002000F3178108F121
:103F90000808002940F08680129A07F001031343B5
:103FA0003FF4E0A8169B17991A19C8E90013299B3A
:103FB0002A920133072B299300F3378108F108086F
:103FC000129901338C18072BCDE92934C8F8005019
:103FD000C8F804107FF7C4A8FFF7ACBB17F0400285
:103FE00000F0A5800E9A994652F8044B0E92A4B2A6
:103FF00064E6BB46FEF7CABF0C990A9828AA02F0ED
:1040000011FD00287FF437A82A9C0DF1AC08FFF7BA
:104010007BBA14463A464F46914601332C44072B4F
:10402000C8F80090C8F80450CDE929347FF798A863
:10403000FFF780BB5946504628AA02F0F3FC00283F
:104040007FF419A838782A992BAAE1E60C990A98E6
:1040500028AA02F0E7FC00287FF40DA82A9C0DF1A5
:10406000AC08FFF765B8012BBB467FF4F5A9FEF756
:1040700092BF0E9B089953F8042B554611600E937E
:10408000FFF78EB8062B294628BF06232A46079538
:104090000D950693764D0E940B930F9113911091FD
:1040A000FEF78EBF169B17981A19C8E90003299BC3
:1040B0002A920133072B299300F3B78008F10808EF
:1040C0000029BFF67DAF4E42103180F2A9834146F0
:1040D0001024A846DFF89C91DDF828B00C9D04E080
:1040E0000831103E102E40F3A78201331032072B07
:1040F000C1E90094CDE92932F2DD2946584628AAC3
:1041000002F090FC00287EF4B6AFDDE929322BA93D
:10411000E7E71446079F01362C44072ECDE92964B2
:10412000C8F80090C8F804507FF7F5AA4EE417F4D9
:1041300000790E9B66D053F8044B91460E93E4B27F
:10414000BCE517F400790E9B57D053F8044B914609
:104150000E93E4B2FEF749BF299ADFF81891FFF7F2
:1041600095BA2D228DF88320FFF757B84546904623
:104170003A460C464F46914601333444072BCDE96D
:104180002934C8F80090C8F804605CDC08F108081D
:10419000FFF79EBB1C9B1B99ED1A1A46284602F09E
:1041A0000DFC98F801300BB108F101082046494692
:1041B0000A2200230026FCF7EFFF9FE60C990A98DD
:1041C00028AA02F02FFC00287EF455AF22992A9CE1
:1041D0000DF1AC08DDE6129AAE18A6EB0B06D51A67
:1041E000AE42A8BF2E46FFF7A6BB52F8044B894645
:1041F00001230E92E4B2FEF7FBBE53F8044B0E937C
:10420000FEF7F3BE53F8044B0E9357E50E9B089947
:1042100053F8042B554611800E93FEF7C1BF44F3AB
:10422000C0194B4664B2FEF7A4BE0C990A9828AA9E
:1042300002F0F8FB00287EF41EAFDDE92932229956
:104240000DF1AC083CE70C990A9828AA02F0EAFBA9
:1042500000287EF410AF2A9C0DF1AC08FFF738BBA4
:104260000623079326F02003069370E4909200083B
:1042700088920008A4920008DDE91235EB189E42EE
:10428000B346199790460C4628BF9B46DDF82CA0F4
:10429000109FFFF723BB229BDA1C109302DB079AC7
:1042A000934204DD023E26F0200306938BE4109B2C
:1042B000129A9342C0F2C28019F0010F00F01D82E1
:1042C000169A13440B9319F4806F00F01482109B1C
:1042D0006726002B76DC0B9B23EAE373069300230F
:1042E0000F931393CFE42D2200238DF8832007939F
:1042F000FEF768BE0C990A9828AA02F093FB0028E2
:104300007EF4B9AE2A9C0DF1AC08FFF7D8BA594635
:10431000504628AA02F086FB00287EF4ACAE38781E
:104320002A992BAA06447AE50C990A9828AA02F041
:1043300079FB00287EF49FAE229B2A9C0DF1AC08ED
:10434000FFF7E1BA07990B9B01910321009126A980
:10435000049123A9039122A95A460A98029100F0D8
:1043600057FB03780546302B00F01682229B079AF4
:10437000B94613440F9FEC185846002200230B99AE
:10438000FCF79AFE08B1234611E4269BA342BFF432
:104390000EAC30215A1C26921970269B9C42F9D8EB
:1043A00005E4229A002A109240F30E82079909F040
:1043B00001030B4340F07E816626109B0B9319F49A
:1043C000806F88D019990B78FF2B00F0258200248C
:1043D000109A204604E001300131FF2B00F0598192
:1043E000934280F25681D21A4B78002BF3D10B788E
:1043F0000134F2E7DDE92921FFF7DAB9079B9DF8DF
:1044000083200E9406930B9307900F9013901090B7
:10441000FEF7D6BD0C990A9828AA02F003FB0028E3
:104420007EF429AE229D129B2A9C0DF1AC085D1BE7
:10443000FFF781BA00230793FEF70BBD129B169A74
:104440009A18109B0B92002B40F385816726B6E7E4
:1044500030238DF8843058238DF88530079B47F042
:104460000204632B00F3C48000233BAD0D9347F49B
:1044700081730F93DDE914121346002B2746C0F217
:1044800084800B9300238B461D9326F02003069314
:10449000612E00F01881412E7FF467AB22AA5846A6
:1044A0000B9902F013FA00224FF07F53FCF70CF83F
:1044B00002460B46CDE9102300220023FCF7FCFD49
:1044C00008B101232293AD4B0B93079BCDE912A6B4
:1044D000CDE91E78DDE91067AB46DDF82CA003F1CD
:1044E000FF39109506E00022002309F1FF39FCF79F
:1044F000E3FDE8B90022A24B30463946FBF7E4FF62
:104500000F460646FCF720FE0446FBF773FF0B46FA
:10451000024639463046FBF71FFE1AF80430B9F15F
:10452000FF3FD8464D4606460F460BF8013BDAD111
:10453000304639460022934BA946DDF848A0109D2D
:10454000CDF84880CDE91001DDF87C80139E1E9FD8
:10455000FCF7DAFD80BBDDE910010022894BFCF796
:10456000ABFD08B1E10727D44B46002B06DB302218
:1045700001335B440BF8012B5B45FBD1ABEB05032F
:10458000B94612930F9FFFF714BB26F02003069342
:104590002D22DDE914349B4604F100431D920B9358
:1045A00076E7299BFFF75CB9079BEC18E4E6299AAC
:1045B000DFF8D491FFF727B8129B26930B9B1BF8CB
:1045C000012CD97B5B468A4209D1302003F8010CCB
:1045D000269B5A1E269213F8012C9142F6D0392AB6
:1045E0000BBF0B9A0132927AD2B203F8012CC5E7C5
:1045F0000A98591C01F0C6FA0546002800F01781F8
:104600000D9034E70221009107995A464C1C26A9C7
:10461000049123A9039122A90B9B0A98019402916A
:1046200000F0F6F90546B9462C440F9FA4E6302366
:104630008DF8843078230FE74546884601333244AD
:10464000072BCDE92932C8F80090C8F804607FF73D
:10465000B5AC0C990A9828AA02F0E4F900287EF477
:104660000AADDDE929320DF1AC08A9E4079B002B66
:1046700008BF0123079347F480730F93159B002B0A
:10468000C0F2B680DDF850B00D900B931D90FFF78F
:1046900073BA1991109213900F940F9A139B1C994F
:1046A00013440B9A01FB03230B9323EAE373069352
:1046B000FFF7E9BA169B6626D31819440B917EE6DC
:1046C00000230D9364E722AA58460B9902F0FEF8E6
:1046D00000224FF07F53FBF7F7FE02460B46CDE971
:1046E000102300220023FCF7E7FC08B101232293EA
:1046F000264B0B93E9E66726EDE5109B0B93E2E56D
:10470000159B0320002BB8BF2D224FF00003A8BF3C
:104710009DF8832019460D931D4D1E4BB8BF8DF893
:10472000832027F080070690FEF77FBD002944D143
:1047300030228DF892200DF19302303302F8013BC4
:1047400024ABD31A1A93FFF787BA06F10F0201219F
:10475000D2B2FFF741BAC3F101031A4422EAE2736D
:1047600067260B920693BAE519F0010F3FF47FAA72
:10477000FFF779BA2998FFF77FBB00BF7492000852
:10478000000030400000E03FA49200086092000862
:10479000589200085C9200085846002200230B99AA
:1047A000FCF78AFC00287FF4E1AD079BC3F101030D
:1047B0002293DCE5DFF89890ADE40DF19202BCE7BE
:1047C000299BDFF88C9028E4079A09F0010959EA3F
:1047D000020304D10123662606930B937FE5169B03
:1047E000662601331A4422EAE2730B92069376E5B9
:1047F0000D90CDE60E9B9AF80160924653F8042B7B
:104800000E9342EAE2730793FEF721BB299BDFF880
:104810004090B1E4079C06E700230F9313933CE715
:10482000DFF82C900AE702231A93FFF715BA0C99C8
:104830008B8943F0400213468A81FEF724BC4FF077
:10484000FF320C2308920A9A1360FEF723BC00BFC4
:10485000A49200082DE9F047DFF87CA00646DAF8BC
:10486000000098460F469146FEF79EFA1B4B1B68C8
:10487000D3F8484124B365681F2D26DC5EB96B1C54
:104880000235DAF80000636044F82570FEF78EFA0E
:104890000020BDE8F087012304EB8501C1F8889072
:1048A000D4F88821AB401A43022EC4F88821C1F8FD
:1048B0000881E4D1D4F88C211343C4F88C31DEE7AD
:1048C00003F5A674C3F84841D5E7DAF80000FEF70F
:1048D0006DFA4FF0FF30DCE7480400204C920008EE
:1048E0002DE9F04F03690C6985B0A342C0F28980BD
:1048F000013C01F11405A30000F11408019355F8DF
:10490000243058F8242001338A469A4208EB840167
:104910008146B2FBF3F605EB840702913AD30021FE
:10492000AE4640460A46A34603955EF8045B04681B
:10493000ABB206FB03132D0C190C06FB05119BB241
:10494000D21A1FFA84FC94448AB2C2EB144202EBDE
:104950002C421FFA8CFC4CEA0243774540F8043B9A
:104960004FEA11414FEA2242DFD2019B5C4658F8E0
:104970000330039D73B9029B043B984504D307E0C1
:10498000984504F1FF3403D253F80429002AF7D0E4
:10499000C9F810405146484601F070FE00282CDB53
:1049A00040460023013655F8041BD0F800C08AB2F7
:1049B0009A1A1FFA8CFE0B0C7244C3EB1C4303EBD8
:1049C000224392B242EA0342AF4240F8042B4FEA3C
:1049D0002343E8D258F8242008EB84036AB9043B47
:1049E000984504D307E0984504F1FF3403D253F807
:1049F0000429002AF7D0C9F81040304605B0BDE8B8
:104A0000F08F002005B0BDE8F08F00BF000000006F
:104A10002DE9F04F90469946016C99B00446CDE9D6
:104A20000489259D41B10123426C93408B604A600B
:104A300001F0CEFB00232364B9F1000AB4BF0123C7
:104A400000232B60764BBCBF2AF0004ACDF814A09F
:104A500033EA0A0300F0AA80DDE904231046194670
:104A600000220023CDE90A01FCF726FB074670B1BE
:104A70000123249A1360269B002B00F0E6826948EC
:104A80001860431E0393039819B0BDE8F08F16AB6E
:104A9000019317AB00932046DDE90A2301F0B4FE31
:104AA0005FEA1A56054640F09780DDE916763E44E7
:104AB00006F23240202840F3B783C0F140000AFAE2
:104AC00000FA06F2124028FA00F04AEA0000FBF76A
:104AD00081FC0123013E0F93A1F1F8710022524B9A
:104AE000FBF73AFB48A3D3E90023FBF7EDFC48A30F
:104AF000D3E90023FBF732FB804630468946FBF7BB
:104B000079FC45A3D3E90023FBF7DEFC02460B4604
:104B100040464946FBF722FB80468946FCF714FBDA
:104B200000228346002340464946FCF7CFFA00287E
:104B300040F07E82BBF1160F00F26D82DDE90A01C2
:104B40003A4B03EBCB03D3E90023FCF7BFFA002871
:104B500072D00023BE1B0E93731E0BF1FF3B069316
:104B600000F1608200230993BBF1000F6BDA099B0F
:104B7000CDF81CB0A3EB0B030993CBF100030D930D
:104B8000229B4FF0000B092B66D8052B40F34A837C
:104B90000026043B2293229B023B032B00F26C86EF
:104BA000DFE813F061045E045504380442F20F7329
:104BB000249ACAF3130A13605AEA08031AD1269BEF
:104BC000002B00F068861A4B03930833269A03984B
:104BD000136019B0BDE8F08FDDE90A12C2F31303C8
:104BE000084643F07F510F97A6F2FF36169F41F417
:104BF000401173E7269B002B40F0EF830D4B03938E
:104C000041E700BFAFF3008061436F63A787D23FE6
:104C1000B3C8608B288AC63FFB799F501344D33FAB
:104C20000000F07F919200080000F83F0094000817
:104C3000B8920008B4920008BE1B731E069300F1E0
:104C40008A840E900990069B5B44CDE9063B0023C5
:104C50000D93229B092B98D9002322934FF0FF3309
:104C60000126089300230C9623930021089B61647E
:104C70001293204601F086FA0390002800F0048683
:104C8000039B2364089B0E2B00F21481002E00F07E
:104C900011810799002940F36084AF4B01F00F02A6
:104CA00003EBC2030A46D3E900674FEA2118D10596
:104CB00040F11784DDE90A01A84B4FF0030AD3E95C
:104CC0000823FBF72BFDCDE9100108F00F08B8F120
:104CD000000F13D0DFF8849218F0010F09D0D9E942
:104CE000002330463946FBF7EFFB06460F460AF134
:104CF000010A5FEA680809F10809EDD1DDE9100150
:104D000032463B46FBF70AFD804689460E9B43B17F
:104D1000002240464946924BFCF7D8F9002840F063
:104D200035855046FBF766FB42464B46FBF7CCFB0E
:104D30008C4B0022FBF712FAA1F15073CDE9100160
:104D40001193089B002B00F09780079B1493089BFE
:104D500013930C9B002B00F0A984139A7E4B002028
:104D600003EBC20353E902237F49FBF7D7FCDDE9DC
:104D70001023FBF7F1F9CDE9100149464046FCF755
:104D8000E3F90746FBF736FB02460B464046494629
:104D9000FBF7E2F9DDE91023039E303706F8017BCB
:104DA00080468946FCF792F9002840F02E85CDF820
:104DB00054B00027DDE910AB1095139D13942AE041
:104DC0000137AF4280F22E85504659460022674B8C
:104DD000FBF77AFB0022654B82468B4640464946EC
:104DE000FBF772FB89468046FCF7AEF90446FBF7F9
:104DF00001FB02460B4640464946FBF7ADF930340D
:104E000052465B4606F8014B80468946FCF75EF940
:104E1000002840F0F88442464B4600205049FBF7FA
:104E20009BF952465B46FCF751F90028C8D0DDE9F2
:104E30001343109D039A079302E0964200F0CD843D
:104E4000B24616F8013D392BF7D00133DBB233708F
:104E5000079B01330793C8E15046FBF7CBFA424664
:104E60004B46FBF731FB3F4B0022FBF777F9A1F1F3
:104E70005073CDE9100111934046494600223C4B46
:104E8000FBF76AF9DDE910894B46424606460F46B4
:104E9000FCF73AF98146002840F0AF84DDE91001C3
:104EA000024601F1004330463946FCF70FF900286D
:104EB00040F04883179B002BC0F28C80079A0E2A83
:104EC00000F38880244B03EBC203D3E900AB239BA0
:104ED000002B1BDA089B002B18DC40F031830022EA
:104EE000234B50465946FBF7EFFA02460B46DDE9E5
:104EF0000A01FCF7F5F8DDF820904E46002800F096
:104F0000CA82239BDDF80C80DF43CCE25246DDE908
:104F10000A785B4638464146FBF700FCFCF714F97B
:104F200081460990FBF766FA52465B46FBF7CCFADE
:104F3000039E0B46024641463846FBF70DF909F140
:104F4000300306F8013B089B012B00F05F830694B9
:104F500001271C4604952AE000940008D893000815
:104F60000000F03F00001C400000E03F0000244033
:104F70000000144052465B4640464946FBF7CEFBD4
:104F8000FCF7E2F80546FBF735FA52465B46FBF7BD
:104F90009BFA01370B46024649464046FBF7DCF8D0
:104FA00005F13003A74206F8013B00F02C830022F4
:104FB000AB4BFBF789FA0022002380468946FCF7B9
:104FC0007BF80028D6D0049D069C079BB24601338F
:104FD00007930AE10C9A002A3DD0229A012A40F355
:104FE0009F82089B03F1FF380D9B4345C0F27082FE
:104FF000A3EB0808089B002BC0F24083069A1A44D2
:105000000692099A17461A4409920121204601F096
:1050100087F9064623E00123BE1B0E93731E0693F9
:105020007FF5A0ADC6F101030993002306939BE52C
:105030005846FBF7DFF942464B46FCF73DF800289F
:105040007FF478AD0BF1FF3B74E5864B0393039837
:1050500019B0BDE8F08FDDF83480099F0C9E002F59
:105060000CDD069900290B4608DDB942A8BF3B4676
:10507000099AFF1AD21ACB1A099206930D9BE3B133
:105080000C9B002B00F06082B8F1000F10DD314660
:105090004246204601F020FA06462A46314620467E
:1050A00001F06CF90346294620461D4601F090F8B0
:1050B0000D9BB3EB080240F0DB820121204601F09A
:1050C0002FF9BBF1000F814600F3B380229B012B27
:1050D00040F388814FF0000A0120BBF1000F40F03F
:1050E000B480069A104410F01F0000F09280C0F1C6
:1050F0002003042B40F3D383099BC0F11C0003441D
:105100000244099307440692099B002B05DD2946BA
:105110001A46204601F03CFA0546069B002B05DDA9
:1051200049461A46204601F033FA81460E9B002B71
:1051300040F03881089B002B40F31E810C9B002B14
:1051400040F09F80079B013307930127DDF80C8017
:10515000DDF820A007E0294600230A22204601F0BE
:1051600041F80546013749462846FFF7B9FB574540
:1051700000F1300308F8013BEDDB089A0027002A14
:10518000CCBF93464FF0010B039A9344294601226A
:105190002046049301F0FCF94946054601F06EFAF9
:1051A000002840F3AB811BF8013C039A0BF1FF3B55
:1051B00004E05A4500F0AD811BF8013D392B0BF19D
:1051C000010AF6D001338BF800304946204600F042
:1051D000FFFF56B12FB1B74203D03946204600F049
:1051E000F7FF3146204600F0F3FF2946204600F045
:1051F000EFFF0023079A8AF80030249B1A60269B51
:10520000002B3FF440AC0398C3F800A019B0BDE8F0
:10521000F08F1C20099B074403440993069B034419
:10522000069371E70126B6E4C0F1200008FA00F009
:105230004DE401465A46204601F04EF9229B814634
:10524000012B40F3B6814FF0000AD9F8103009EB7A
:105250008303186901F018F8C0F1200041E700BF8E
:105260000000244090920008314600230A22204684
:1052700000F0B8FF129B0646002B40F3E982CDE90F
:105280000783002F00F31D81BAF1000F40F0D98190
:10529000B046049B089903F00102039B0A921F4643
:1052A000013B1944229B0891134309934946284620
:1052B000FFF716FB31468346284601F0DFF94246E8
:1052C00049468246204601F0F9F9C26801460BF1D1
:1052D0003003002A43D104902846069301F0CEF90A
:1052E000024604992046049200F072FF049A069B3D
:1052F0001AB90999002900F09B82BAF1000FC0F297
:10530000648122994AEA010A0A9951EA0A0100F0E5
:105310005C81002A00F3B681089A07F1010A9742DE
:10532000D3463B7000F0B481294600230A22204670
:1053300000F058FF4645054631464FF000034FF058
:105340000A02204612D000F04DFF414606460023D7
:105350000A22204600F046FF57468046A6E7204630
:10536000049300F035FF0122049BC6E700F03AFFEA
:1053700057460646804699E7229B022B7ADC0C9B17
:10538000002B7FF47EAF079B4946013328460793E5
:10539000FFF7A6FADDF80CB000F1300300270BF898
:1053A000013BF3E64946284601F068F90028BFF6BC
:1053B000C1AE294600230A22204600F013FF079BB6
:1053C000054603F1FF380C9B002B7FF44DAF129B79
:1053D000002B40F334820893B7E6B04B03930333BA
:1053E000FFF7F4BBDDE9041200297FF473AEC2F3CA
:1053F0001303002B7FF46EAEA94B1340002B00F07B
:105400000082099B4FF0010A01330993069B013387
:10541000069361E601230C93239B079A134412938E
:105420000133012B1F46B8BF012708930021172F16
:1054300061647FF71EAC012204235B0003F11400BA
:10544000B842114602F10102F7D9616411E4012367
:105450000C93239B002B4CDD1F4612930893E5E72A
:1054600000230C93D8E700230C93F2E7129BCDF8AE
:105470001C800893089B002B7FF443AD494605220E
:10548000204600F0AFFE81462846494601F0F6F876
:1054900000287FF736AD31230398079F804600F838
:1054A000013B013703904946204600F091FE7B1CEA
:1054B000DDF80CA00793CDF80C80002E7FF491AEA0
:1054C00093E631463A46204601F062F80646DBE6AE
:1054D0000D9BCDF83480A8EB03039B444FF00008EC
:1054E00088E5DDE90A234FF0020ACDE91023FFF732
:1054F000EEBB012323930893FFF7B7BB03D1049BB3
:10550000D8073FF550AEDA461BF8013D302BFAD0F4
:105510005BE6079B039A013307933123137054E62C
:105520000F9A002A00F0288103F23343069ADDF82F
:1055300034801A440692099A17461A44099264E57F
:105540004FF000094E46DCE4294620460D9A00F053
:10555000C3FF0546B1E50E9064E500F01181DDE979
:105560000A01079A4F4B564206F00F0203EBC203A3
:10557000D3E90023FAF7A8FF36118046894600F0E8
:10558000708100234FF0020A474FF20706D5D7E992
:105590000023FAF799FF01230AF1010A761007F1B7
:1055A0000807F2D1002B3FF4B1AB80468946FFF7E4
:1055B000ADBB049B002B7FF446AEDDE90412C2F3C1
:1055C0001303002B3FF418AF3DE6002A12DD2946F5
:1055D00001222046049300F0DBFF4946054601F016
:1055E0004DF80028049B40F31781392B00F0FB8015
:1055F0000BF13103BA46079A374601324646079205
:105600000AF8013BE1E50995069C049D02460B461C
:10561000FAF7A4FD52465B4680468946FBF774FDC7
:1056200060B952465B4640464946FBF745FD0028B7
:105630003FF4CBAC099BD9077FF5C7AC039AFFF7C2
:10564000FFBB2046716800F09DFD0746002800F072
:105650000C81336906F10C0102339A000C30FBF720
:105660005FFC39460122204600F092FF804610E69A
:105670002946204600F030FF05461EE5DDE90823F7
:105680009F1AC2E4392B00F0AE80BA460133B2E76C
:10569000079A374601324646079277E5B4920008EA
:1056A0000000F07F00940008D8930008DDF84CA0BB
:1056B0008349DDE9102301EBCA0151E90201FAF740
:1056C00003FFCDE9100149464046FBF73DFD064684
:1056D000FAF790FE0B46024649464046FAF73CFD73
:1056E0005346039F3036012B8046894607F8016BED
:1056F00000F0AC80139E039B1E440022714B404679
:105700004946FAF7E1FE89468046FBF71DFD8246D1
:10571000FAF770FE02460B4640464946FAF71CFD72
:105720000AF1300A07F801ABB74280468946E4D156
:10573000DDE910010022644BFAF710FD42464B46AA
:10574000FBF7C4FC002862D1DDE9102300205E498C
:10575000FAF702FD42464B46FBF7D6FC00283FF421
:10576000A9AB16F8013CB246302B06F1FF36F8D053
:10577000149B0133079338E5169BC3F13603D5E636
:105780004FF0020ADDE90A89FFF7C0BA089B002B37
:105790003FF462AB129B002B7FF78CAB1393079BFC
:1057A0000022013B404649461493464BFAF78CFED3
:1057B000804689460AF10100FAF71CFE42464B4634
:1057C000FAF782FE414B0022FAF7C8FCA1F15073B0
:1057D000CDE910011193FFF7BCBA079B0133079382
:1057E0003123FFF734BB079BBB46013307933923B3
:1057F00037460BF8013B4646D7E44FF000094E46CA
:1058000049E69A4668E4109D139CB246B0E7149BA3
:10581000039A0793FFF714BB7FF4ECAEDA077FF52A
:10582000E9AEE2E6DDF854B0109D139CFFF742BBF1
:10583000392BD8D0BAF1000F3FF7DAAEDAE6229B67
:10584000022B3FF713AECDF81C809CE53E466FE778
:10585000229B022B3FF70AAE129BCDF81C800893C7
:105860000FE54FF0020AFFF751BA024640F2EA2173
:10587000174B184801F054F900262046314666645B
:1058800000F080FC039078B900224FF4D571104BE2
:10589000104801F045F9104B0393FFF7F4B83FF4BB
:1058A00033ACC0F13C00B5E4039B012223644FF00C
:1058B000FF33239612930C920893FFF7FBBA00BFB5
:1058C00000940008000024400000E03F00001C405D
:1058D000C4920008D8920008B8920008F8B50C46A7
:1058E000234F064600F042FCBB685D68C4F57E634A
:1058F00025F003050F332B4423F47F6323F00F03BC
:10590000A3F58054B4F5805F07DB0021304601F039
:1059100015F8BB682B44984204D0304600F02CFCAC
:105920000020F8BD3046614201F008F801300DD08A
:10593000104ABB682D1B45F001055D6013683046B9
:105940001B1B136000F018FC0120F8BD002130463D
:1059500000F0F4FFBA68831A0F2BDEDD43F0010379
:105960005360054B03491B68C01A0860D5E700BFA8
:105970004C040020D40A00205408002000295ED0E6
:10598000F8B50C46064600F0F1FB54F8042C784FAD
:10599000A4F1080522F001016818D7F808C043688F
:1059A000844523F0030300F08780D207436034D49A
:1059B00054F8082C07F10804AD1A1144AA68A24251
:1059C00068D000EB030CDCF804E0D5F80CC01EF046
:1059D000010FC2F80CC0CCF8082000F0918041F013
:1059E00001036B600160B1F5007F31D24A09CB0839
:1059F000012191407A6801331143796007EBC302BA
:105A000057F83310083AC5E9021247F83350CD6011
:105A10003046BDE8F84000F0AFBBC2185268D2076C
:105A20000ED4194407F108048368A34270D0C268F9
:105A3000DA60936041F001036B606950D3E770470F
:105A400041F00103B1F5007F44F8043C0160CDD37F
:105A5000B1F5206F4FEA512347D28B0903F139008A
:105A600003F13802C300F818FB580838984258D0A0
:105A70005A6822F003028A4202D99B689842F7D101
:105A8000D868C5E9023085603046DD60BDE8F84081
:105A900000F072BBC2185268D20763D40B44D0E93D
:105AA0000212CA60916043F001026A603046EB5016
:105AB000BDE8F84000F060BB0B44D10707D454F8B0
:105AC000082CAD1A1344D5E90212CA60916043F064
:105AD00001026A60274ABD6012689A4298D8264B34
